:020000040800F2
:10000000A80400209D100008651000086710000873
:10001000691000086B1000086D1000080000000057
:100020000000000000000000000000006F10000849
:10003000711000080000000073100008751000081F
:10004000B9100008BD100008C1100008C510000854
:10005000C9100008CD100008D1100008D510000804
:10006000D9100008DD100008E1100008E5100008B4
:10007000E9100008ED100008F1100008F510000864
:10008000F9100008FD100008011100080511000812
:10009000091100080D1100081111000815110008C0
:1000A00019110008C10600081D11000821110008DF
:1000B00025110008291100082D1100083111000830
:1000C00035110008391100083D11000841110008E0
:1000D0004511000877070008491100084D11000874
:1000E0005111000855110008591100085D11000850
:1000F0006111000865110008691100086D11000800
:100100007111000875110008791100087D110008AF
:100110008111000885110008891100088D1100085F
:100120009111000895110008991100089D1100080F
:100130002DE9F843040016D02078DFF84C64C1079D
:1001400013D5706800F00C00042807D0706800F028
:100150000C00082841D17068C1033ED53068810386
:1001600003D56068002800F064812078DFF82874E7
:10017000810719D5706810F00C0F07D0706800F077
:100180000C00082861D17068C1035ED43068810713
:1001900003D52069012840F04C813168606921F065
:1001A000F80141EAC00131602178080740F18180FF
:1001B000A069DFF8E813002800F0A68001220A6099
:1001C00000F002FA0546706A810763D400F0FCF97A
:1001D000401B0228F7D903202EE16068B0F5803F6C
:1001E00004D1306840F48030306014E008B93068E1
:1001F0000AE0B0F5A02F306806D140F480203060CE
:10020000316841F4803105E020F48030306031689D
:1002100021F480213160606858B100F0D5F90546BD
:1002200030688103A1D400F0CFF9401B6528F7D3D3
:10023000D1E700F0C9F905463068810395D500F093
:10024000C3F9401B6528F7D3C5E72069A8B1012190
:10025000396000F0B9F905463068810705D400F02F
:10026000B3F9401B0228F7D9B5E73068616920F07F
:10027000F80040EAC100306096E7386000F0A4F969
:100280000546316888078FD500F09EF9401B02288B
:10029000F7D9A0E7DFF8F4020168C9084FF47A72D1
:1002A000B1FBF2F2009200BF0098411E00280091BD
:1002B000F9D1207841076ED5F0690025C10009D435
:1002C000F06940F08050F0610125F06900F0805045
:1002D00000900098DFF8C882D8F80000C10520D44B
:1002E000D8F8000040F48070C8F8000000F06CF905
:1002F0008146D8F80000C10513D400F065F9A0EBE1
:1003000009006528F5D366E7086000F05DF9054649
:10031000706A8107CDD500F057F9401B0228F7D944
:1003200059E7E068012808D008B9306A09E00528D3
:10033000306A06D140F004003062306A40F00100BB
:1003400005E0400840003062306A20F0040030626E
:1003500041F28938E06860B100F036F98146306AD0
:10036000810713D400F030F9A0EB09004045F6D323
:1003700031E700F029F98146306A810706D500F09F
:1003800023F9A0EB09004045F6D324E71DB1F0693D
:1003900020F08050F061E06900284CD0716801F0D5
:1003A0000C01082938D002282AD100F047F8054668
:1003B0003068810105D500F007F9401B0228F7D904
:1003C00009E7206AB0F5803F05D17168A06821F483
:1003D0000031014371607268206A616A22F474120C
:1003E00002430A437260012000F029F80446306895
:1003F000810120D400F0E8F8001B0228F7D9EAE6D2
:1004000000F01CF804463068810114D500F0DCF8D7
:10041000001B0228F7D9DEE601280AD07068226A9C
:1004200000F48031914202BF00F47010616A88428A
:1004300001D0012000E00020BDE8F28300203866F2
:1004400000F0C2B82DE9F041040088464ED0554E68
:1004500000F077F802D200F06FF847D120684A4DDB
:10046000810712D5400703D5696841F4E0616960EE
:100470002078010703D5686840F4605068606968B7
:10048000A06821F0F001014369602178C80725D5F3
:100490006068012802D129688A0303E002282968DC
:1004A00002D18A0102D421E08A071FD56968890830
:1004B00040EA8100686000F087F807466868616874
:1004C00000F00C00B0EB810F08D000F07DF8C01BED
:1004D00041F289318842F1D303202BE0306800F0EB
:1004E0000700804504D200F027F801D0012021E068
:1004F0002078410705D56A68E06822F4E06202438B
:100500006A602178080706D56968206921F460517E
:1005100041EAC001696000F019F86A6822491B4B82
:10052000C2F30312895CC84018601A48006800F0E2
:1005300051F80020BDE8F0813168C90848EAC101DE
:100540003160306800F00700404570471749104897
:100550000A6802F00C03082B00D0704710B500BFEA
:1005600014A4C2F38343D203E35C08D5096858435B
:1005700014A3C1F340415A5CB0FBF2F010BD184621
:100580000B49484310BD000000100240A0000020AD
:1005900000127A009C000020000042428004424287
:1005A00000700040002002408C100008041002403F
:1005B00000093D0002030405060708090A0B0C0D9B
:1005C0000E0F10100102000001484068704700BF84
:1005D0009400002038B50D4D0D4B2A7804464FF499
:1005E0007A711868B1FBF2F2B0FBF2F000F049F852
:1005F00050B9102C08D2002221464FF0FF3000F0F5
:1006000023F8AC60002032BD012032BD94000020F0
:10061000A00000200901020002D424488154704740
:10062000234B02F00F021A4402F8041C7047214BBE
:1006300019684FF6FF020002114000F4E060084321
:100640001D4908431860704770B51A4B1C68C4F305
:1006500002230124C3F10705052D2EBF0F2504FA3F
:1006600005F56D1E1E1D072E34BF0023DB1E29401D
:10067000994004FA03F3BDE870405B1E1A40114331
:10068000C8E710B5401EB0F1807F01D3012010BD36
:100690000A4C60600F214FF0FF30FFF7BBFF0021D5
:1006A000A16007202060002010BD000000E400E0F1
:1006B00018ED00E00CED00E00000FA0510E000E0AD
:1006C00070B5704A146A9068611C40F2E735401CAE
:1006D000536A9060A8420BD100205B1C906053626B
:1006E0003B2BC2BF5062116263293EDD10623CE0C9
:1006F000654D2D78EE0704D4906910B90C460121A0
:10070000916115F0200004BFD169002902D10121B7
:10071000641ED1611462E90744BF0024946108B1EA
:100720000020D0616421106A01FB0031002B51616F
:1007300048BF3B2302D43B2BC8BF00230028536291
:1007400048BF632002D46328C8BF0020D16810626C
:10075000136A4E48994202BF1169536A99420CBF0D
:1007600001220022032100F0F7F8494801684908F6
:100770004900016070BD474801688A0626D5414995
:100780004068087008780A280FD04B788A1CD0542B
:100790004878401CC2B2012A487003D10A6A4B6AE9
:1007A000CA600B61C0B2052801DB002048708B785D
:1007B000C8780A2202FB0303A3F504730B6288794D
:1007C0004B7902FB0302A2F504724A62704730B50E
:1007D0008BB000F0CFF800F00BF900F0DDF800F07E
:1007E00035F900F050F900F073F900F09FF900F0CE
:1007F000DDF9002203212548274D224C00F051F855
:100800000022002100F04AF80022012100F046F801
:100810000022022100F042F80022032100F03EF8FD
:100820000022042100F03AF80022052100F036F8F9
:100830000022062100F032F80022072100F02EF8F5
:1008400001220421284600F087F8082004210A909C
:10085000089101232020802102220493029000911C
:100860000692099507950595039501952B4610214C
:1008700004F1280000F0B6FA00F06BF9606900F0AE
:1008800001FAF9E714000020A4000020001801403C
:10089000102C01400038014000140140284600F0AF
:1008A00000B8F0B58E000123751CB71C03FA05F5DE
:1008B00003FA07F7ED43FF43F61C8C000839012AC1
:1008C00003FA06F603FA04F40FD10268164300F0A7
:1008D00022F825EA040400F018F82C4300F027F869
:1008E000026822EA03030360F0BD6AB9026822EAE3
:1008F000060600F010F82C4300F007F8AC4300F0B7
:1009000016F8426813434360F0BD0460D51C446888
:1009100003FA05F5704706600A0406683740076069
:10092000920B07683D400560890005687047446088
:10093000951C446803FA05F5AC434460521C4468B6
:1009400003FA02F224EA020242608B407047806898
:10095000C84000F0010070470123012A03FA01F1A9
:1009600003D1026911430161704712B94269114311
:100970004161704780B50748016841F0100101608E
:100980000320FFF754FE0F20FFF724FE00F096FA35
:10099000002002BD002002401448016841F004011B
:1009A0000160026842F008020260016841F0100133
:1009B0000160026842F020020260016841F04001DB
:1009C0000160026842F400620260016841F00101C6
:1009D0000160426842F001024260416841F0020158
:1009E0004160026842F48042026070471810024081
:1009F00000B58FB02822002105A800F081FA14224A
:100A00000021684600F07CFA4FF480310022069104
:100A100007920D9101200590099002224FF4E011F8
:100A20000C920E9105A8FFF783FB022101910F2084
:100A30004FF48061009000220391029204920221FF
:100A40006846FFF7FFFC0FB000BD00001C480168BE
:100A500021F01001016040F2E732C2624721816259
:100A6000C268184942F00102C2600A7842F01002DE
:100A70000A7015490B6843F000730B60016841F080
:100A80000101016070471148016841F42061016073
:100A90004721026842F4204202604FF0804040F259
:100AA000E7328162C26246F26001C1618121026A5D
:100AB00042F44072026201600022C2630264704725
:100AC000002C014019E400E000E100E0040C0140CA
:100AD0001348016821F0F0010160026822F470629D
:100AE0000260016841F030010160026842F080025A
:100AF000026041F64C52016841F48061016042F2AB
:100B00002C010848026041602021426822F4B05262
:100B10004260054A1160436843F4005343607047E4
:100B2000040801400838014004E100E010B51C4C05
:100B3000002203212046FFF7B4FE002201211948BC
:100B4000FFF7AFFE2046BDE8104001220421FFF769
:100B5000A8BE70B5144C134D114E00232370002213
:100B600001212846FFF7F8FE012201212846FFF760
:100B7000F3FE0725002203213046FFF7EDFE042196
:100B80003046FFF7E4FE2178A84008432070012298
:100B900003213046FFF7E0FE6D1EEBD5207870BDD7
:100BA000000C014000180140A400002010B52D4C9D
:100BB000002200212046FFF774FE002205212A486A
:100BC000FFF76FFE002202212046FFF76AFE204653
:100BD000BDE8104000220221FFF7BEBE2DE9F04122
:100BE000224EDFF88480375C0D460024C4F10700F4
:100BF00027FA00F1CB0754BF00220122052140460D
:100C0000FFF7AAFE00F039F8012200F037F8641C63
:100C1000E0B20828EADB134F00F02AF8002200F0C7
:100C200028F870190026057AC6F1070025FA00F1A8
:100C3000CA0754BF0022012205214046FFF78CFE5F
:100C400000F01BF8012200F019F8761CF0B2082819
:100C5000EADB00F00DF83846BDE8F0410022002143
:100C6000FFF77ABE00180140000C01400000002090
:100C7000012200213846FFF76FBE002203214046C3
:100C8000FFF76ABE2DE9F8430A2190FBF1F292FBCF
:100C9000F1F601FB120501FB1626642290FBF2F22D
:100CA00092FBF1F701FB17274FF47A7390FBF3F2F5
:100CB00092FBF1F801FB182842F2107290FBF2F05F
:100CC00090FBF1F901FB1909032449460020FFF7C5
:100CD00085FF00F01CF841460120FFF77FFF00F080
:100CE00016F839460220FFF779FF00F010F8314678
:100CF0000320FFF773FF00F00AF829460420FFF7EE
:100D00006DFF00F004F8641EDFD1BDE8F18301201F
:100D100000F000B900F0FEB8F8B50D4604462E0903
:100D200010000CBF0022012A03D12189606800F065
:100D300005F9218F606B06F0010200F0FFF87208E0
:100D400000F049F804F14807B2083988606C00F0F7
:100D500045F8F2083989786818BF012200F0EEF8EA
:100D600000F034F800F027F800F02BF800F023F83A
:100D700000F02CF800F01FF8218F606B00F01DF8D8
:100D80006A0800F028F8AA083988606C00F026F894
:100D9000ED083989786800F010F800F017F800F0D5
:100DA0000AF800F00EF800F006F800F00FF8BDE8C1
:100DB000F2400120AEE70120ACE705F0010200F0AF
:100DC000BDB8218AE068012200F0B8B8218AE06845
:100DD000002200F0B3B8B4F84010E06B02F001025A
:100DE00000F0ACB82DE9F74F07460C9ADDF834E077
:100DF0000E9CDDF83C80109DDDF84490DDF848B095
:100E0000DDF84CA01498DDF854C0169900263E7009
:100E10009DF804607E709DF80860BE703C827B6027
:100E200007F148043A81C7F80CE0C7F834803D87E1
:100E3000C7F83C90A7F840B0C7F844A020802181B3
:100E4000282060730621A1720C20E0721421C4F8DE
:100E500004C021733220FFF75DFF0022332100F030
:100E600029F80520FFF756FF0022332100F022F871
:100E70000520FFF74FFF0022322100F01BF805206C
:100E8000FFF748FFA17A00F014F8E17A00F011F8BA
:100E9000217B00F00EF8617B00F00BF800220121AD
:100EA00000F008F8384603B0BDE8F04F00220221F8
:100EB00032E7002238462FE7000000000E4881B0DC
:100EC000016841F001010160026802F00102009234
:100ED0000099426842F080524260406800F08050C1
:100EE000009000980548016821F0E06141F0007130
:100EF000016001B0704700BF1810024004000140BB
:100F000010B5044610460A460146204600F01AF87D
:100F1000204610BD38B50446FFF756FB14F1010F0B
:100F2000054602D0044908780419FFF74DFB401B21
:100F3000A042FAD331BD00BF9400002002B90904D9
:100F40000161704762F30F2262F31F42401810F0F4
:100F5000030308D0C91A1FD3DB0748BF00F8012DCF
:100F600028BF20F8022D130030B41446154610395E
:100F700028BF20E93C00FAD8490728BF20E90C0027
:100F800048BF40F8042D890028BF20F8022D48BF33
:100F900000F8012D30BC7047C91818BF00F8012DAA
:100FA000CB0728BF00F8012D704730B50168846871
:100FB0004218416802EB5103C90703D54C4401E0D4
:100FC000491C05D19A420AD012F9011B12F8015BA3
:100FD000002904F8015BF3D4491EF7D5F2E70C3081
:100FE00030BD000010B5074979441831064C7C44E7
:100FF000163404E00A68081D114488470146A142DE
:10100000F8D110BD08000000140000009FFFFFFF92
:1010100090010000540000000000002000F00DF8D6
:10102000002801D0FFF7DEFFAFF300800020AFF310
:101030000080FFF7CCFB00F002F80120704700F0C1
:1010400001B800000746384600F002F8FBE7000050
:1010500080B5AFF30080024A11001820ABBEFBE759
:1010600026000200FEE7FEE7FEE7FEE7FEE7704728
:101070007047704700F000B802494A680878821843
:101080004A60704794000020704700000000000094
:101090000000000001020304060708090148804718
:1010A0000148004789100008AD100008AFF3008028
:1010B000AFF30080FFF7B2FFFFF7FEBFFFF7FEBF01
:1010C000FFF7FEBFFFF7FEBFFFF7FEBFFFF7FEBF54
:1010D000FFF7FEBFFFF7FEBFFFF7FEBFFFF7FEBF44
:1010E000FFF7FEBFFFF7FEBFFFF7FEBFFFF7FEBF34
:1010F000FFF7FEBFFFF7FEBFFFF7FEBFFFF7FEBF24
:10110000FFF7FEBFFFF7FEBFFFF7FEBFFFF7FEBF13
:10111000FFF7FEBFFFF7FEBFFFF7FEBFFFF7FEBF03
:10112000FFF7FEBFFFF7FEBFFFF7FEBFFFF7FEBFF3
:10113000FFF7FEBFFFF7FEBFFFF7FEBFFFF7FEBFE3
:10114000FFF7FEBFFFF7FEBFFFF7FEBFFFF7FEBFD3
:10115000FFF7FEBFFFF7FEBFFFF7FEBFFFF7FEBFC3
:10116000FFF7FEBFFFF7FEBFFFF7FEBFFFF7FEBFB3
:10117000FFF7FEBFFFF7FEBFFFF7FEBFFFF7FEBFA3
:10118000FFF7FEBFFFF7FEBFFFF7FEBFFFF7FEBF93
:10119000FFF7FEBFFFF7FEBFFFF7FEBFFFF7FEBF83
:1011A000040810204080FD0009AFA06EEAE1CBCF1B
:1011B000A2EFEBDE00003AFD00003BA5000001F9C4
:0A11C000000010FC000324F40000FE
:04000005080010AD32
:00000001FF
