:020000040800F2
:1000000078040020790E0008410E0008430E000815
:10001000450E0008470E0008490E000800000000C9
:100020000000000000000000000000004B0E00086F
:100030004D0E0008000000004F0E0008510E000891
:10004000A50E0008A90E0008AD0E0008B10E0008AC
:10005000B50E0008B90E0008BD0E0008C10E00085C
:10006000C50E0008C90E0008CD0E0008D10E00080C
:10007000D50E0008D90E0008DD0E0008E10E0008BC
:10008000E50E0008E90E0008ED0E0008F10E00086C
:10009000F50E0008F90E0008FD0E0008010F00081B
:1000A000050F0008FD080008090F00080D0F0008E3
:1000B000110F0008150F0008190F00081D0F000888
:1000C000210F0008250F0008290F00082D0F000838
:1000D000310F000817090008350F0008390F000814
:1000E0003D0F0008410F0008450F0008490F0008A8
:1000F0004D0F0008510F0008550F0008590F000858
:100100005D0F0008610F0008650F0008690F000807
:100110006D0F0008710F0008750F0008790F0008B7
:100120007D0F0008810F0008850F0008890F000867
:100130002DE9F843040016D02078DFF84C64C1079D
:1001400013D5706800F00C00042807D0706800F028
:100150000C00082841D17068C1033ED53068810386
:1001600003D56068002800F064812078DFF82874E7
:10017000810719D5706810F00C0F07D0706800F077
:100180000C00082861D17068C1035ED43068810713
:1001900003D52069012840F04C813168606921F065
:1001A000F80141EAC00131602178080740F18180FF
:1001B000A069DFF8E813002800F0A68001220A6099
:1001C00000F01EFA0546706A810763D400F018FA41
:1001D000401B0228F7D903202EE16068B0F5803F6C
:1001E00004D1306840F48030306014E008B93068E1
:1001F0000AE0B0F5A02F306806D140F480203060CE
:10020000316841F4803105E020F48030306031689D
:1002100021F480213160606858B100F0F1F90546A1
:1002200030688103A1D400F0EBF9401B6528F7D3B7
:10023000D1E700F0E5F905463068810395D500F077
:10024000DFF9401B6528F7D3C5E72069A8B1012174
:10025000396000F0D5F905463068810705D400F013
:10026000CFF9401B0228F7D9B5E73068616920F063
:10027000F80040EAC100306096E7386000F0C0F94D
:100280000546316888078FD500F0BAF9401B02286F
:10029000F7D9A0E7DFF8F4020168C9084FF47A72D1
:1002A000B1FBF2F2009200BF0098411E00280091BD
:1002B000F9D1207841076ED5F0690025C10009D435
:1002C000F06940F08050F0610125F06900F0805045
:1002D00000900098DFF8C882D8F80000C10520D44B
:1002E000D8F8000040F48070C8F8000000F088F9E9
:1002F0008146D8F80000C10513D400F081F9A0EBC5
:1003000009006528F5D366E7086000F079F905462D
:10031000706A8107CDD500F073F9401B0228F7D928
:1003200059E7E068012808D008B9306A09E00528D3
:10033000306A06D140F004003062306A40F00100BB
:1003400005E0400840003062306A20F0040030626E
:1003500041F28938E06860B100F052F98146306AB4
:10036000810713D400F04CF9A0EB09004045F6D307
:1003700031E700F045F98146306A810706D500F083
:100380003FF9A0EB09004045F6D324E71DB1F06921
:1003900020F08050F061E06900284CD0716801F0D5
:1003A0000C01082938D002282AD100F047F8054668
:1003B0003068810105D500F023F9401B0228F7D9E8
:1003C00009E7206AB0F5803F05D17168A06821F483
:1003D0000031014371607268206A616A22F474120C
:1003E00002430A437260012000F029F80446306895
:1003F000810120D400F004F9001B0228F7D9EAE6B5
:1004000000F01CF804463068810114D500F0F8F8BB
:10041000001B0228F7D9DEE601280AD07068226A9C
:1004200000F48031914202BF00F47010616A88428A
:1004300001D0012000E00020BDE8F28300203866F2
:1004400000F0DEB82DE9F041040088464ED0554E4C
:1004500000F077F802D200F06FF847D120684A4DDB
:10046000810712D5400703D5696841F4E0616960EE
:100470002078010703D5686840F4605068606968B7
:10048000A06821F0F001014369602178C80725D5F3
:100490006068012802D129688A0303E002282968DC
:1004A00002D18A0102D421E08A071FD56968890830
:1004B00040EA8100686000F0A3F807466868616858
:1004C00000F00C00B0EB810F08D000F099F8C01BD1
:1004D00041F289318842F1D303202BE0306800F0EB
:1004E0000700804504D200F027F801D0012021E068
:1004F0002078410705D56A68E06822F4E06202438B
:100500006A602178080706D56968206921F460517E
:1005100041EAC001696000F019F86A6822491B4B82
:10052000C2F30312895CC84018601A48006800F0E2
:100530006DF80020BDE8F0813168C90848EAC101C2
:100540003160306800F00700404570471749104897
:100550000A6802F00C03082B00D0704710B500BFEA
:1005600014A4C2F38343D203E35C08D5096858435B
:1005700014A3C1F340415A5CB0FBF2F010BD184621
:100580000B49484310BD0000001002400C00002041
:1005900000127A000800002000004242800442421B
:1005A0000070004000200240680E00080410024065
:1005B00000093D0002030405060708090A0B0C0D9B
:1005C0000E0F1010010230B4002513E050F8042B78
:1005D000D30744BFA9F101039A18091F042942F85F
:1005E000045BFAD213468C0744BF15809B1CC907D5
:1005F00048BF1D7050F8041B0029E7D130BC70477C
:1006000001484068704700BF0000002038B50D4D1C
:100610000D4B2A7804464FF47A711868B1FBF2F258
:10062000B0FBF2F000F049F850B9102C08D20022CB
:1006300021464FF0FF3000F023F8AC60002032BDBF
:10064000012032BD000000200C0000200901020042
:1006500002D4244881547047234B02F00F021A44FD
:1006600002F8041C7047214B19684FF6FF02000284
:10067000114000F4E06008431D49084318607047CA
:1006800070B51A4B1C68C4F302230124C3F107059B
:10069000052D2EBF0F2504FA05F56D1E1E1D072E14
:1006A00034BF0023DB1E2940994004FA03F3BDE860
:1006B00070405B1E1A401143C8E710B5401EB0F1F0
:1006C000807F01D3012010BD0A4C60600F214FF0E4
:1006D000FF30FFF7BBFF0021A16007202060002052
:1006E00010BD000000E400E018ED00E00CED00E0BB
:1006F0000000FA0510E000E000F0E8B8F8B50D469B
:1007000004462E0910000CBF0022012A03D12189C2
:10071000606800F0EFF8218F606B06F0010200F0D6
:10072000E9F8720800F049F804F14807B20839887E
:10073000606C00F045F8F2083989786818BF01222A
:1007400000F0D8F800F034F800F027F800F02BF8AB
:1007500000F023F800F02CF800F01FF8218F606BF8
:1007600000F01DF86A0800F028F8AA083988606CC3
:1007700000F026F8ED083989786800F010F800F0EC
:1007800017F800F00AF800F00EF800F006F800F094
:100790000FF8BDE8F2400120AEE70120ACE705F01C
:1007A000010200F0A7B8218AE068012200F0A2B897
:1007B000218AE068002200F09DB8B4F84010E06B98
:1007C00002F0010200F096B82DE9F74F07460C9AA7
:1007D000DDF834E00E9CDDF83C80109DDDF844909F
:1007E000DDF848B0DDF84CA01498DDF854C0169937
:1007F00000263E709DF804607E709DF80860BE7013
:100800003C827B6007F148043A81C7F80CE0C7F8E6
:1008100034803D87C7F83C90A7F840B0C7F844A0A3
:1008200020802181282060730621A1720C20E072B3
:100830001421C4F804C021733220FFF75DFF0022A9
:10084000332100F029F80520FFF756FF002233215D
:1008500000F022F80520FFF74FFF0022322100F0C0
:100860001BF80520FFF748FFA17A00F014F8E17AA1
:1008700000F011F8217B00F00EF8617B00F00BF81E
:100880000022012100F008F8384603B0BDE8F04F1F
:100890000022022132E7002238462FE7000030B460
:1008A0000EE00268436802440830DC0744BFA9F147
:1008B0000104E31852F8045B43F8045B091FF9D103
:1008C00050F8041B0029ECD130BC704738B5044601
:1008D000FFF796FE14F1010F054602D0044908788F
:1008E0000419FFF78DFE401BA042FAD331BD00BFB3
:1008F0000000002002B9090401617047394801680D
:10090000491C152928BF00210160374801684908A2
:10091000490001607047354801688A0610D534499E
:100920004068087008780A2808D04A780A4490700D
:100930004878401C4870C0B2052801DB0020487090
:10094000704718B58BB000F05DF800F099F800F032
:100950006BF800F0C3F800F0DEF800F001F900F0E9
:100960002DF900F043F9234C0022002100F046F855
:100970000022012100F042F80022022100F03EF89E
:100980000022032100F03AF80022042100F036F89A
:100990000022052100F032F80022062100F02EF896
:1009A0000022072100F02AF801220421204600F04D
:1009B0008FF9082004210A9008910123202080212A
:1009C00002220493029000910692099407940594E0
:1009D00003940194234610210748FFF7F5FE00F029
:1009E000BFF8FEE770000020102C014000380140E5
:1009F000680000200014014010000020204600F094
:100A000011B9000080B50748016841F0100101608C
:100A10000320FFF728FE0F20FFF7F8FD00F066F92E
:100A2000002002BD002002401448016841F004018A
:100A30000160026842F008020260016841F01001A2
:100A40000160026842F020020260016841F040014A
:100A50000160026842F400620260016841F0010135
:100A60000160426842F001024260416841F00201C7
:100A70004160026842F480420260704718100240F0
:100A800000B58FB02822002105A800F051F91422EA
:100A90000021684600F04CF94FF4803100220691A5
:100AA00007920D9101200590099002224FF4E01168
:100AB0000C920E9105A8FFF73BFB022101910F203C
:100AC0004FF480610090002203910292049202216F
:100AD0006846FFF7B7FC0FB000BD00001C48016876
:100AE00021F01001016040F2E732C26247218162C9
:100AF000C268184942F00102C2600A7842F010024E
:100B00000A7015490B6843F000730B60016841F0EF
:100B10000101016070471148016841F420610160E2
:100B20004721026842F4204202604FF0804040F2C8
:100B3000E7328162C26246F26001C1618121026ACC
:100B400042F44072026201603222C2630264704762
:100B5000002C014019E400E000E100E0040C014039
:100B60001348016821F0F0010160026822F470620C
:100B70000260016841F030010160026842F08002C9
:100B8000026041F64C52016841F48061016042F21A
:100B90002C010848026041602021426822F4B052D2
:100BA0004260054A1160436843F400534360704754
:100BB000040801400838014004E100E010B5094C88
:100BC00000220321204600F02DF8002201210648D2
:100BD00000F028F82046BDE810400122042100F072
:100BE00021B80000000C01400018014010B50B4C6A
:100BF00000220021204600F015F8002205210848B7
:100C000000F010F800220221204600F00BF82046E8
:100C1000BDE810400022022100F05AB8001801403F
:100C2000000C0140F0B58E000123751CB71C03FABF
:100C300005F503FA07F7ED43FF43F61C8C0008396E
:100C4000012A03FA06F603FA04F40FD102681643E8
:100C500000F022F825EA040400F018F82C4300F014
:100C600027F8026822EA03030360F0BD6AB902684C
:100C700022EA060600F010F82C4300F007F8AC4317
:100C800000F016F8426813434360F0BD0460D51CC1
:100C9000446803FA05F5704706600A0406683740A1
:100CA0000760920B07683D40056089000568704742
:100CB0004460951C446803FA05F5AC434460521C3B
:100CC000446803FA02F224EA020242608B40704751
:100CD0000123012A03FA01F103D1026911430161E1
:100CE000704712B942691143416170470E4881B0A3
:100CF000016841F001010160026802F00102009206
:100D00000099426842F080524260406800F0805092
:100D1000009000980548016821F0E06141F0007101
:100D2000016001B0704700BF18100240040001408C
:100D300010B5044610460A460146204600F002F867
:100D4000204610BD62F30F2262F31F42401810F0DC
:100D5000030308D0C91A1FD3DB0748BF00F8012DD1
:100D600028BF20F8022D130030B414461546103960
:100D700028BF20E93C00FAD8490728BF20E90C0029
:100D800048BF40F8042D890028BF20F8022D48BF35
:100D900000F8012D30BC7047C91818BF00F8012DAC
:100DA000CB0728BF00F8012D7047000010B5074998
:100DB00079441831064C7C44163404E00A68081D56
:100DC000114488470146A142F8D110BD0800000037
:100DD00028000000F3F7FFFF64000000100000206F
:100DE00000000000BBFAFFFF100000009C000000A4
:100DF000000000200000000000F00DF8002801D0E5
:100E0000FFF7D4FFAFF300800020AFF30080FFF7BF
:100E100098FD00F002F80120704700F001B80000D2
:100E20000746384600F002F8FBE7000080B5AFF354
:100E30000080024A11001820ABBEFBE7260002002A
:100E4000FEE7FEE7FEE7FEE7FEE770477047704704
:100E500000F000B802494A68087882184A60704772
:100E600000000020704700000000000000000000AB
:100E700001020304060708090148804701480047AA
:100E8000650E0008990E0008010000000000000037
:100E9000100000000024F400AFF30080AFF30080E6
:100EA000FFF7AAFFFFF7FEBFFFF7FEBFFFF7FEBF8A
:100EB000FFF7FEBFFFF7FEBFFFF7FEBFFFF7FEBF66
:100EC000FFF7FEBFFFF7FEBFFFF7FEBFFFF7FEBF56
:100ED000FFF7FEBFFFF7FEBFFFF7FEBFFFF7FEBF46
:100EE000FFF7FEBFFFF7FEBFFFF7FEBFFFF7FEBF36
:100EF000FFF7FEBFFFF7FEBFFFF7FEBFFFF7FEBF26
:100F0000FFF7FEBFFFF7FEBFFFF7FEBFFFF7FEBF15
:100F1000FFF7FEBFFFF7FEBFFFF7FEBFFFF7FEBF05
:100F2000FFF7FEBFFFF7FEBFFFF7FEBFFFF7FEBFF5
:100F3000FFF7FEBFFFF7FEBFFFF7FEBFFFF7FEBFE5
:100F4000FFF7FEBFFFF7FEBFFFF7FEBFFFF7FEBFD5
:100F5000FFF7FEBFFFF7FEBFFFF7FEBFFFF7FEBFC5
:100F6000FFF7FEBFFFF7FEBFFFF7FEBFFFF7FEBFB5
:100F7000FFF7FEBFFFF7FEBFFFF7FEBFFFF7FEBFA5
:0C0F8000FFF7FEBFFFF7FEBFFFF7FEBF4C
:0400000508000E9948
:00000001FF
