:020000040800F2
:100000003005002005300008CB2F0008CD2F000858
:10001000CF2F0008D12F0008D32F000800000000C8
:10002000000000000000000000000000D52F0008C4
:10003000D72F000800000000D92F0008DB2F000890
:100040002130000825300008293000082D30000834
:100050003130000835300008393000083D300008E4
:100060004130000845300008493000084D30000894
:100070005130000855300008593000085D30000844
:100080006130000865300008693000086D300008F4
:100090007130000875300008793000087D300008A4
:1000A00081300008FD2400088530000889300008F0
:1000B0008D30000891300008953000089930000814
:1000C0009D300008A1300008A5300008A9300008C4
:1000D000AD300008B9250008B1300008B53000087F
:1000E000B9300008BD300008C1300008C530000834
:1000F000C9300008CD300008D1300008D5300008E4
:10010000D9300008DD300008E1300008E530000893
:10011000E9300008ED300008F1300008F530000843
:10012000F9300008FD3000080131000805310008F1
:100130002DE9F14FB2B09946924600230691CDE9E0
:1001400000333C9A0F930DF14A0114914A7011E06B
:10015000329E57462C4617F8011B0698B0470028D8
:10016000069000F026810F98401C641E0F90F2D17B
:100170003296AA449AF80000252808D100210022CE
:1001800009910A920B910C920D910E920FE06A4622
:100190004FF0FF31504601F071F8050002D10F9881
:1001A00000F066BED4D50125E3E741F001011AF85D
:1001B000010F2028F9D023280CD02B2804D02D287B
:1001C00005D0302809D00BE041F00201EFE741F003
:1001D0000401ECE741F00801E9E741F01001E6E72E
:1001E0002A280FD1D9F8002052F8040BC9F80020B2
:1001F0000028119003D54042119041F004010AF10A
:10020000010A14E01192DFF8EC3B0AE011989842E1
:1002100005DA00EB800402EB4402303A11920AF155
:10022000010A9AF80020A2F130000A28EED39AF8C9
:1002300000002E2803D04FF0FF32109229E01AF868
:10024000010F2A2809D1D9F8000050F8042BC9F869
:10025000000010920AF1010A1BE02D280CBF0AF1E0
:10026000010A002000221092DFF8882B0BE040B931
:10027000109B934205DA03EB830504EB4504303C05
:1002800010940AF1010A9AF80040A4F130030A2BF5
:10029000EDD3ADF848100FF660309AF8001000F07A
:1002A000F7FF08B11AF8010B8DF84A009DF84A00D3
:1002B000682805D19AF8000068280CD1622106E070
:1002C0006C2804BF9AF800006C2804D171218DF8C5
:1002D0004A100AF1010A1FA808901AF801BBBBF1E5
:1002E00025012DD01C3900F06181091F022940F23F
:1002F0005D810E392AD0491F00F0B384093900F01E
:100300005581891E00F04985491E00F0F584491E7B
:10031000022940F24B81091F00F0EE84491F00F0D2
:10032000BA80491E00F09D84491E65D0C91E21D0A7
:10033000891E00F09684C91E00F0938400F04CBD25
:1003400025238DF87C30012109912AE06C208DF85D
:100350004A00D9F8000050F8042BC9F80000002A20
:1003600043D11499487800283DD04FF0FF340FF660
:10037000902012E09DF84A006C28EAD0D9F80000DD
:1003800050F8044BC9F800000794D4B91499487880
:1003900098B14FF0FF340FF6842000F089FF201A47
:1003A00007D132981FAA04A900F065FD00287FF547
:1003B000E1AE4FF0FF3000F05BBD0FF67C20079000
:1003C000EFE7109D002D04D5204600F091FF044674
:1003D00007E02A46204600F0A7FF002814BF041BB0
:1003E0002C460A94DDE70FF65422329804A900F057
:1003F000C8FD0028D5D5DCE7D9F8001051F8040B6A
:10040000C9F8001020F00004002121F0FF351FABD7
:10041000CDE904450793DDE9042308993C2413B989
:100420000AB9109898B102F00F053035641EEEB28B
:100430003A2EA8BF2735120942EA03721B090D554F
:1004400008BF002A03D007980D19A842EBD308195A
:100450000790C4F13C0210980A92824209DABDF872
:100460004810821A4FF6EF7001400C92ADF8481018
:1004700097E7002895D59DF8480000F01400102853
:100480008FD1119B09990C985B1A1B1A9A1A002A92
:1004900087DD0C9285E71499487820B14FF0FF343E
:1004A0000FF69C1079E79DF84A00622862D0682810
:1004B00019D06A2840D06C2806D071284DD07428F5
:1004C0002DD07A281ED064E0D9F8001051F8040B22
:1004D000C9F8001020B94FF0FF340FF67C105CE72C
:1004E0000F9901605DE7D9F8001051F8040BC9F8C5
:1004F000001020B94FF0FF340FF65C104DE70F9954
:1005000001804EE7D9F8001051F8040BC9F800102B
:100510000028E5D14FF0FF340FF63C103DE7D9F845
:10052000001051F8040BC9F800100028D8D14FF082
:10053000FF340FF6241030E7D9F8001051F8040BFF
:10054000C9F8001020B94FF0FF340FF60C1024E763
:100550000F9AD317C0E9002323E7D9F8001051F808
:10056000040BC9F800100028F2D14FF0FF340FF649
:10057000E80012E7D9F8001051F8040BC9F8001090
:1005800020B94FF0FF340FF6D00006E70F99017045
:1005900007E7D9F8001051F8040BC9F8001000283B
:1005A0009ED14FF0FF340FF6B000F6E6D9F80020E8
:1005B000D21D22F00702C9F80020D2E9000108325A
:1005C000C9F80020CDE90401C80F02D009982D21F7
:1005D0000AE0BDF84800810702D509982B2103E005
:1005E000C00705D5099820211FAA1154401C099065
:1005F000DDE9042309991FA8CDE92E2308444BF017
:1006000020016129079015AC0BD01099002902D563
:100610000621109105E001BF4BF02001672901225E
:100620001092DDE9042359004915491C10D11A0321
:100630000ED0ABF1610503211A2D0A9102D20FF6FB
:10064000A43101E00FF6A031032200F099FEA8E6E4
:1006500059004915491C0AD11A0308D1ABF16105AB
:1006600003211A2D0A9116D30FF68431ECE7DDE948
:100670000401CDE93001DDE9302323F00047B7F56F
:10068000801F22F000060DD20022002F08BF002E8E
:10069000029203D116E00FF65431D5E702AA00F01A
:1006A000C3FE0FE0DFF8EC0ADFF8EC1A00EB17509E
:1006B0000290DDE930234FF0FF301940DFF8DC7A9B
:1006C00010403943CDE904014BF0200061280DD1E1
:1006D000079830210170821CBBF1610F07920CBF9B
:1006E0007821582141700998801C0990DDE90401A6
:1006F00020F0000231F0004308BF002A02D100269A
:10070000002571E14BF02008B8F1610F40F0BE8088
:100710001098002847BF21210391401C0390039F9C
:10072000DDE92E017F1C00220023DDE9044500F0F5
:10073000B3FE02998DF8542038BF85F00045091F9B
:10074000002F02910DF155065DDDDFF8541ACDE959
:10075000302140F2FF732E932046294600220023C9
:1007600000F0B2FE4FD24800400D00F11C0215D03F
:10077000002A13DD2E9B9A420ADBDDE9300121F0CD
:10078000004205F000400243DDE93001114611E06E
:100790006FF31E5141EA025120460BE024F00000A5
:1007A00035F0004108BF00280FBF29461C2229460A
:1007B00000F0A2FE04460D4600F03CFFFF1F002F94
:1007C000804609DD00F054FF02460B4620462946CC
:1007D00000F060FF04460D46F01D0721B8F1000F40
:1007E0000CDD491E5EBF08F00F0200F8012D4FEA34
:1007F0002818F3D502E0002200F8012D491EFAD591
:10080000C61D002FA8DC0DF15500361A039886424C
:10081000D8BF304600280DF1550430D4B04206DA76
:100820000DF155010A5C082AA8BF0F2100DA00214A
:10083000024615AB134400E0401E13F80159521E46
:100840008D42F9D00F2904D10DF155018B5C5B1C51
:100850008B54002A04D50299091D15AC401C029145
:10086000411E0CD46218ABF13A0613783033DDB276
:100870003A2DA8BFF318491E02F80139F5D5109991
:10088000002940F1AF80421E1092ABE00299DFF8E0
:10089000142947F29750414391FBF2F2DDE92E45CE
:1008A000029225F00045D2F1070204DD20462946D8
:1008B00000F04CFC0BE052420020DFF8EC1800F096
:1008C00045FC02460B462046294600F055FF0446EB
:1008D000B8F1660F109806BF029F0A3706273F1827
:1008E000142FC8BF142730208DF854000D46002067
:1008F000DFF8B818CDE92E010DF15506002F33DDD4
:100900002046294601F05CF801460A4606F1080334
:1009100004200A26B2FBF6F606EB860EA2EB4E0288
:10092000303203F8012C0A22B6FBF2F202EB820EFF
:10093000A6EB4E063036401E03F8026DE9D1083FA3
:10094000002F03F10806D9DD084601F04DF80246F4
:100950000B462046294600F09DFEDDE92E2301F0DE
:1009600051F804460D46CBE70DF15500361A0DF14E
:10097000550404E00298401E761E0290641C207804
:100980003028F7D0B8F1660F02D10299491C04E073
:10099000B8F1650F0CBF012100211098081886429C
:1009A000B8BF701E00281DD4B04204DA215C34297F
:1009B000C8BF392100DC30210246631E9D1800E0CB
:1009C000401E15F80169521E8E42F9D0392902D114
:1009D000A15C491CA154002A04D50299491C1C465B
:1009E000401C02910646029D00F04CFC406A0778CC
:1009F000DDF8408030B2002802DC01260FF2F474EA
:100A00004BF02000662808BF6D1C16D0672846D121
:100A100028B210F1040F48DB404546DA9DF8480043
:100A20006D1C010703D430B24045B8BF804628B2E0
:100A3000B8EB000848BF4FF000080FFA85FB079895
:100A40000A99BBF1000F00F3B2804A1C0A923023CE
:100A50004354B8F1000F03DC9DF84800010704D5AA
:100A60000A98411C0A9107990F5418EB0B0FB8BF55
:100A7000C8F100052DB268420D90A84432B29045ED
:100A8000B8BF4646079B0A9836B20B9632462146B7
:100A9000184400F075FCA8EB06000E90CBE0BBF10B
:100AA000610F17D14FF0700B19E030B2404504DAF6
:100AB0009DF848100A0758BF8046B8F1010848BFA2
:100AC0004FF00008BBF1670F14BF4FF0450B4FF01C
:100AD000650B04E0BBF1410F08BF4FF0500B0A98C3
:100AE000411C0A91B8F1000F079914F8012B0A5420
:100AF00003DC9DF8480001071AD50A98411C0A91A9
:100B0000B8F1000F07990F5412DD761E30B2804500
:100B100007980A9BB8BF464632B22146184400F0F7
:100B20002FFC0A9936B271180A91A8EB06000D90B5
:100B300007980A9908442AB2002A80F800B003D422
:100B40002B224270811C04E02D2141701546811C2E
:100B50006D4200202EAA0A2409E02B4693FBF4F5EF
:100B600005EB8506A3EB460302F8013B401C2DB2C2
:100B7000002DF2DC012806DC4BF02002652A04BFC0
:100B8000302201F8012B00282EAA08D1302001F8CC
:100B9000010B06E0401E135C303301F8013B0028D6
:100BA000F8DC079A0A981044091A0B9143E00844AC
:100BB00031B22AB2914219DA32B2214600F0E0FB9A
:100BC0000A9936B27118ABEB0606B8F1000F0A911C
:100BD0000D9603DC9DF84800020704D5079847549A
:100BE0000B99491C0B91CDF8388024E0214600F088
:100BF000C7FB0A98761B5844B8F1000F0A9003DC33
:100C00009DF848100A0703D5411C0A9107990F5413
:100C100030B2804507980A9BB8BF464632B204EB13
:100C20000B01184400F0ACFB0A9836B230180A9059
:100C3000A8EB06000D909DF8480000F01400102865
:100C40007FF4AFAB099A0A990D988A180B9982180C
:100C50000E988A18821811988242BFF6A2AB821AA7
:100C600017E49DF84A00622808D068280ED06A2848
:100C700014D06C281FD0712810D01CE0D9F80010B7
:100C800051F8040BC9F80010C0B21AE0D9F80010EE
:100C900051F8040BC9F8001080B212E0D9F8002016
:100CA000D21D22F00702C9F80020D2E90001083263
:100CB000C9F8002006E0D9F8001051F8040BC9F873
:100CC00000100021CDE904019DF8480001075AD524
:100CD000DDE90423002B08BF002A54D04BF020008C
:100CE000782850D109981FA930220A54401C431C6F
:100CF000099301F800B046E09DF84A00622808D048
:100D000068280ED06A2814D06C281FD0712810D003
:100D10001CE0D9F8001051F8040BC9F8001040B2DB
:100D20001AE0D9F8001051F8040BC9F8001000B20D
:100D300012E0D9F80020D21D22F00702C9F80020E5
:100D4000D2E900010832C9F8002006E0D9F8001005
:100D500051F8040BC9F80010C117CDE904010029AE
:100D600002D509982D210AE0BDF84800810702D577
:100D700009982B2103E0C00705D5099820211FAA57
:100D80001154401C09901FA809990144079104A817
:100D9000594600F056F9FFF704BB9DF84A006C284D
:100DA0000BD001210991D9F8000050F8041BC9F8B3
:100DB00000008DF87C10FFF7F4BAD9F8000050F865
:100DC000041BC9F8000015914FF0FF32109200216A
:100DD000169115AAFFF709BB25210122BBF1000FCF
:100DE0008DF87C1009923FF4DCAA8DF87DB00221C9
:100DF000FFF7AABACBCCCC0C686A6C747A4C0000B2
:100E00007072696E74665F733A2062616420256C4B
:100E10007320617267756D656E7400007072696E23
:100E200074665F733A206261642025732061726783
:100E3000756D656E74000000000000000000000089
:100E40007072696E74665F733A20256E20646973F0
:100E5000616C6C6F776564007072696E74663A20BD
:100E600062616420256E20617267756D656E740025
:100E700033B0BDE8F08F2DE9FC410F4606469046A1
:100E80007A6B7869396ABC6A121AB869521A796A37
:100E9000121AF869521A121A97F83800141B4107EF
:100EA0000FD42020002C8DF800000ADD25460123F8
:100EB0006A463946304600F07DF900285DD16D1E46
:100EC000F5D17B6942463946304600F073F9002877
:100ED00053D130208DF800003D6A002D09DD01233B
:100EE0006A463946304600F065F9002845D16D1E46
:100EF000F5D1BB69FA683946304600F05BF9002845
:100F00003BD130208DF800007D6A002D08DD0123E3
:100F10006A463946304600F04DF970BB6D1EF6D179
:100F2000F868B969FB6942183946304600F042F961
:100F300018BB30208DF80000BD6A002D08DD0123AC
:100F40006A463946304600F035F9B0B96D1EF6D123
:100F500097F8380041070DD52020002C8DF80000AF
:100F600008DD01236A463946304600F023F920B9EE
:100F7000641EF6D10020BDE8F6814FF0FF30BDE8D9
:100F8000F6812DE9F8470D46A3B02F6B002F82465E
:100F9000904648BF6FF0004700F005FE696B4018AF
:100FA00001AA0021C2E90011812828BF4FF0FF30BB
:100FB00044D289461EE0A74230DB686920188128A8
:100FC0000BD30021696303AA29465046FFF753FF5C
:100FD0005FEA000922D40020686103AB6E692246F3
:100FE0006946981900F0CCF9A6196E6158F8040BFF
:100FF000A0B13F1B002F11DDD8F8001001AA6846F0
:1010000000F03EF90446002C05D4D8F80000002872
:10101000D1D1641ECFD54FF0FF390EE0B9F1000FEA
:10102000504604D103AA2946FFF725FF8146B9F1AE
:10103000000F02D1002068616863484624B0BDE813
:10104000F0872DE9FC4307466F293E6908BF082455
:1010500005D041F02000782814BF0A2410243C2534
:10106000D7E90023642918BF69299046994605D11C
:10107000002B03D5D8F1000869EB4909B9F1000F3D
:1010800008BFB8F1000F0CD1386B50B9082C39D11A
:1010900097F83800010735D530203B2586F83B000E
:1010A00030E08DF80010404649462246E31700F034
:1010B0007FFD3032D0B26D1E3A28019504DB9DF8D9
:1010C0000000A0F151018A18725540464946224657
:1010D000E31700F06DFD80465FEA010908BFB8F133
:1010E000000F03D0F86871198842DCD3082C09D1AD
:1010F00097F83800010705D5705D302802D06D1EC5
:1011000030207055C5F13C02BA617119F960386B35
:10111000824208DA821A3A624FF6EF70398F014044
:101120003987BDE8F38300280ED597F8380000F022
:101130001400102808D17B6B7969386A5B1A1B1A76
:101140009A1A002AC8BF3A62BDE8F3832DE9D0435A
:1011500006460F4614464FF00008DFF8549012E0A0
:10116000E00707D542464B463046394600F04AFC78
:1011700006460F464046494642464B4600F042FC72
:10118000641080468946002CEAD130463946BDE8D5
:10119000D083000002FCFFFFFFFF0F800000E03F54
:1011A0000000F07FA08601000000F03F84D7974147
:1011B00000002440F8B505460E4617461C460020A0
:1011C0005CB117F8011BB068A847B06030B1F06A95
:1011D000401CF0620020641EF3D1F2BD4FF0FF30DE
:1011E000F2BD00006E616E004E414E00696E6600F9
:1011F000494E46003000B1F5807F02D34FF0FF30FA
:1012000070470170012070470078401E8041C04344
:10121000C00F70471C48704770B45368D41801E081
:101220005B1C491E042B08DA00291FBF057804F84F
:10123000015B10F8016B002EF2D1536070BC704757
:1012400038B514461D4661B1FFF7E6FF61686A6B69
:10125000204690476FF00102811A02D0491E01D04A
:1012600001E003E005E00021616032BD6FF00100A4
:1012700032BD4FF0FF3032BDDA6B1047024BDFE773
:10128000014BF9E701487047E0000020A80000206A
:10129000C9B202788A421AB11CBF10F8012FF9E7CF
:1012A00018BF002070470268531C0360117070471C
:1012B00080B500B906A005490B681BB122220021A8
:1012C000984701E000F08CFD222002BD280100209B
:1012D000636F6E73747261696E742068616E646CA2
:1012E00065723A20626164206D65737361676500A1
:1012F00000F10103810704D010F8011B820781B1BE
:10130000FAD10268A2F10131914311F0803104BF9A
:1013100050F8042FF6E709BAB1FA81F100EBD100D9
:10132000401CC01A70472E00C9B2830706D0521E57
:1013300022D310F8013B9942F7D11FE0083A13D3AA
:1013400002F1040241EA012141EA014150F8043B63
:10135000121F21BF4B40A3F1013C2CEA030C1CF0EF
:10136000803FF3D0C9B2001F083210F8013B521E73
:1013700028BF91EA030FF8D818BF0120401E70471C
:1013800062B38B0708D0521E11F8013B00F8013BF5
:1013900000F024808B07F6D1830740F0208000BF47
:1013A000103A07D330B4B1E83810103AA0E838103A
:1013B000F9D230BC530724BFB1E80810A0E80810E8
:1013C00044BF51F8043B40F8043BD20724BF31F836
:1013D000022B20F8022B44BF0B7803707047121FBA
:1013E00017D35B0009D151F8043B20F8023B1B0CDA
:1013F000121F20F8023BF6D20BE051F8043B00F834
:10140000013B1B0A20F8023B1B0C121F00F8013B9A
:10141000F3D238BF121D521E24BF11F8013B00F851
:10142000013BF8D87047430010B5144600F002F8AD
:10143000226010BDC1F30A5343B14A0012F5001FE8
:1014400028D2A3F2FE32A1EB0251704750EA410CC0
:1014500020D001F0004C31EA0C01B1FA81F204BF56
:10146000B0FA80F3D2180B3AB2F120032CBF00FA85
:1014700003F1914041EA0C013EBFC2F1200C20FA79
:101480000CF319439040524240F2FD33D21A01EB63
:1014900003517047002270474FF4001C1CEB410FB2
:1014A00094BF1CEB430F09E041EA030C50EA4C0CDB
:1014B00052EA0C0C03D2994208BF9042704714BF05
:1014C0008B428242704700004FF4001C1CEB410F1E
:1014D00094BF1CEB430F09E041EA030C50EA4C0CAB
:1014E00052EA0C0C03D28B4208BF8242704714BFF1
:1014F0009942904270470000124254D440F2FF7C5F
:101500001CEA11530FD0634531D09B1863453CBF93
:1015100001EB0251704701F0004141EA0C510020FB
:10152000AFF30080704750EA410320D001F0004C37
:1015300091EA0C011CD0B1FA81F30B3B9A420DD910
:10154000D21A994051EA0C01C3F1200C20FA0CFC8C
:1015500061449840531C40F2FF7CD7E7914041EA38
:101560000C01C2F1200C20FA0CF319439040704793
:10157000B0FA80F31533202BE0D3202AEED3203AA3
:10158000203B9A4209D9D21A00FA03F141EA0C0130
:101590000020531C40F2FF7CB8E700FA02F141EA58
:1015A0000C0100207047524240F2FF7C1CEA1153AC
:1015B0000DD06345DBD0B2EB030C3CBFA1EB025175
:1015C00070470CF1010221EA035141F4801150EA05
:1015D000410CCCD001F0004C352A27DC30B481EA34
:1015E0000C01B2F1200309DAC2F12003044601FA2A
:1015F00003F5D0402843D1409C400CE0C3F12002C9
:10160000450020FA03F418BF44F0010421FA03F066
:1016100091400C43002174F1004550F1000051EB62
:101620000C01244230BC7FF47BAF70476146002040
:1016300076E70000C1F30A5340F2FE329B1A14DD34
:10164000D3F120034FEAE17208DDC90241EA5051AB
:1016500041F00040D84080185040704703F2E1301C
:1016600010B1D24382F00040704700207047000064
:10167000C11768B14840401AB0FA80F29040D21CBD
:10168000C907C2F5846241EA025202EBD02140054B
:101690007047000070B44FF0004591EA030F40F12D
:1016A000A3836B40841A71EB030603D2001BB14184
:1016B000121973414FF4001C1CEB410F34BF7CEB3B
:1016C000430442E00C0DA4EB1356352E4FDC45EAE3
:1016D000C323DB0A45EAC121C912B6F120050DDD9D
:1016E00063FA05F6EB4086EA0305124218BF45F09F
:1016F0000105C01851F100010CD213E062FA06F5A1
:10170000F2405540F3415A40B340F3405A408018EC
:10171000594107D349085FEA30005FEA350528BF21
:1017200045F0010501F58011420875F1004250F1C4
:10173000000041EB04514E0016F5001F70BC38BF8D
:1017400070470020090D090570471CEB410F10D2AE
:1017500052EA43060BD0BCEB410F05D80C0DAB434E
:10176000661E342EB6DD02E0AB438018594170BCD2
:10177000704770BC70470000F0B540F2FF7581EA19
:10178000030C0CF0004C15EA11541DBF15EA135759
:10179000AC42AF42E5E0BC41C1F31301C3F3130314
:1017A000801A994143F4801304D2641E40004941D9
:1017B00080185941C90241EA5051B1FBF3F603FBCD
:1017C0001611A2FB0675D7EBC020A94102D2761EE6
:1017D00080185941C90241EA5051B1FBF3FE03FBA5
:1017E0001E11A2FB0E75D7EBC020A94103D2AEF1AA
:1017F000010E80185941890241EA9051760546EA66
:101800008E2EB1FBF3F603FB1611A2FB0675D7EB88
:101810008020A94102D2761E80185941C90241EAAE
:1018200050514EEA060EB1FBF3F603FB1611A2FB74
:101830000675D7EBC020A94102D2761E8018594107
:10184000C90241EA5051B1FBF3F703FB1711A2FBA8
:101850000735D3EBC020A94167F100070CBF004258
:1018600047F0010766F3D5274FEA1E31B80814F593
:10187000806412DDBD0775F1004250EB0E5051EB54
:10188000045111F5801F5CBF41EA0C01F0BD4CF022
:101890007F6141F0E0410020F0BDBD076D0840EAE6
:1018A0000E5041F48011D4F10104B4F120060ADA9B
:1018B000C4F120060200E04001FA06F3E1401843BB
:1018C000B24015430EE0342C13DCC6F1200445EA87
:1018D00040056D0820FA06F2154321FA06F0A140F2
:1018E0000D43002175F1004250F1000051EB0C0155
:1018F000F0BD00205FEA0C01F0BDCFB992185B414A
:10190000B3FA83F704BFB2FA82F6BF190B3FB7F1FF
:1019100020062FBF02FA06F3BB40C7F1200622FAC9
:1019200006F638BF3343BA401CB1E419641E33E7EE
:101930007F4231F00041B1FA81F404BFB0FA80F681
:10194000A4190B3CB4F120062FBF00FA06F1A14008
:10195000C4F1200620FA06F638BF3143A0403C1BF4
:101960001AE7AC421ABF05EA1357AF4212E050EA39
:1019700041061CBF52EA4306BFE750EA4107304622
:1019800061461CBF41EA0551F0BD52EA430C08BF55
:10199000C143F0BD00204FF4001616EB410F98BF75
:1019A00016EB430F08BF16EB410F24BFC14305E000
:1019B00016EB430F0CBF61464CEA0551F0BD000029
:1019C000400D491840EA81200CD2490DA1F58061F3
:1019D000491C40F0004005DBD1F11F0154BFC84055
:1019E000C017704700207047014648B1B0FA80F137
:1019F0008840C91CC1F58461090501EBD02140056F
:101A000070470000B0B581EA030C0CF0004C40F2C6
:101A1000FF7515EA11541DBF15EA1357AC42AF42CA
:101A200039E0E41923EA455343F48013C90241F035
:101A3000004141EA505EC7021100A7FB02020028E4
:101A40004FF00000EEFB01204FF00001E3FB072107
:101A500018BF42F00102401800214941E3FB0E018A
:101A6000A4F580640F0302D252004041494154F171
:101A700001046CDD470872F1004250F1000051EBA7
:101A80000451A1F580115CBF41EA0C01B0BD4CEAE4
:101A900005510020B0BD05EA1357AC4214BFAF4258
:101AA00041E050EA410E1CBF52EA430E02E061469B
:101AB0000020B0BD24423C441BD15FEA070EF6D0A3
:101AC000090302BF01460020AEF1140EB1FA81F7FE
:101AD000AEEB070401FA07FE0C37C7F1200100FA4C
:101AE00007F7C8404EEA000E23EA455343F480133B
:101AF000A2E733F00043B3FA83F704BFB2FA82FEE1
:101B000077440B3FE41BB7F1200E2FBF02FA0EF310
:101B1000BB40C7F1200E22FA0EFE38BF43EA0E0387
:101B2000BA40641C82E750EA410E14BF52EA430EE9
:101B30006FF000014FF4001717EB430F8ABF1946EF
:101B400017EB410FB5E74CEA05510020B0BDD4F1C9
:101B50000104B4F120070FDAC4F12007520828BFAE
:101B600042F0010210FA07F501FA07F7E1BF2A4334
:101B7000E0403843E1400FE0352C98DCC7F1200409
:101B800052EA400220FA07F218BF42F0010231FA8D
:101B900007F0A1400A43002172F1004250F1000019
:101BA00051EB0C01B0BD80B5FFF734FB006C02BDFA
:101BB000BBBBE1B1B2F5803F80F07E80022A1ED926
:101BC0008C46B1FBF2F102FB11C31B0443EA104344
:101BD000B3FBF2FC02FB1C3380B240EA0343B3FBCD
:101BE000F2F002FB103240EA0C4000237047022A58
:101BF00005D98446B0FBF2F002FB10C270474AB12F
:101C000005D100F0010249085FEA30007047002268
:101C10000023704700F09EB90B0002000021002055
:101C20007047904271EB030CF6D3B3F5803F2FD28F
:101C3000F0B5B3FA83F7B1FA81F4A7F10F0E3D1BAB
:101C40005340CEF1200602FA0EF2F3415340B5F1B3
:101C50000F0746D80F3C2C444140C4F12006A04059
:101C6000F1414140B1FBF3F603FB1611A2FB06451F
:101C7000001BA94102D2761E8018594180EA010258
:101C800021FA0EF362FA0EF200215A403046F0BDFE
:101C900030B4B1FBF3FC03FB1C11A2FB0C45001B91
:101CA000A94103D2ACF1010C8018594130BC024665
:101CB0000B46604600217047B2F1807F65D3F0B5D6
:101CC000B2FA82F7B1FA81F4C7F10F063D1B22FA8E
:101CD00006F307F1110EF24120355A40B5F10F0716
:101CE000B8D94140C4F12006A040F1414140B1FBC8
:101CF000F3FC03FB1C11A2FB0C45001BA94103D202
:101D0000BCF1010C801859410F2F12D30F3FC903AA
:101D100041EA5041B1FBF3F603FB1611A2FB064565
:101D2000D4EBC030A94102D2761E8018594146EA50
:101D3000CC3C07B34140C7F12006B840F1414140D7
:101D4000B1FBF3F603FB1611A2FB0645001BA941EC
:101D500002D2761E8018594180EA010221FA0EF360
:101D6000C7F1200462FA0EF20CFA07F05A402CFA7E
:101D700004F13043F0BD80EA010221FA0EF30021A4
:101D800062FA0EF260465A40F0BD8C46B1FBF2F1A9
:101D900002FB11C31B0243EA1063B3FBF2FC02FB1C
:101DA0001C331B024CEA002043EA1063B3FBF2FC35
:101DB00002FB1C331B024CEA002043EA1063B3FB16
:101DC000F2FC02FB1C331B024CEA002043EA1063C6
:101DD000B3FBF2FC02FB1C324CEA002000237047EC
:101DE000012000F0B9B80000841A71EB030604D298
:101DF0006E40001BB141121973414FF4001C1CEBE3
:101E0000410F34BF7CEB430683E00C0DA4EB13566B
:101E1000362E00F37C80012E45EAC32341DC43EAE1
:101E2000525312BFD20292025B08240545EAC12137
:101E300041EA5051D2EBC020994125D407D1B0FAE4
:101E400080F610FA06F162D00020203608E0B1FAE0
:101E500081F6B140C6F1200220FA02F21143B040EF
:101E60004FEAF474B4EB465434F001064FEA7404BC
:101E70000AD8D6F50016760D04F00044F04061FA59
:101E800006F25040F1404840C00A40EA415021F07B
:101E9000004128BF5FEA500550F1000044EBD1211A
:101EA00035E0DB0A45EAC121C90AB6F120050EDD9D
:101EB00042EA0242120CC5F1200603FA06F6EB4094
:101EC00042EA06056D42984161F100010DE062FAB7
:101ED00006F5F240554063FA06FC82EA0C02F34034
:101EE0005A406D42904161EB030111F4801F05D10E
:101EF000641E620502D06D004041494121F4801109
:101F0000430875F1004350F1000041EB045170BCEF
:101F100070471CEB410F15D223F0004352EA4306F1
:101F20000BD04FEA4C0CBCEB410F04D80C0D661ED5
:101F3000342EB7DDEBE7801A994150EA410608BF1D
:101F40000021E4E708BF1CEB430F28BF6FF000013E
:101F5000DDE700007047000080B5AFF30080024A63
:101F600011001820ABBEFBE7260002002DE9F84364
:101F7000040016D02078DFF84C64C10713D57068D0
:101F800000F00C00042807D0706800F00C0008284E
:101F900041D17068C1033ED53068810303D56068C4
:101FA000002800F064812078DFF82874810719D5B3
:101FB000706810F00C0F07D0706800F00C00082853
:101FC00061D17068C1035ED43068810703D5206990
:101FD000012840F04C813168606921F0F80141EA44
:101FE000C00131602178080740F18180A069DFF8E5
:101FF000E813002800F0A68001220A6000F002FA2F
:102000000546706A810763D400F0FCF9401B022882
:10201000F7D903202EE16068B0F5803F04D1306825
:1020200040F48030306014E008B930680AE0B0F560
:10203000A02F306806D140F480203060316841F430
:10204000803105E020F480303060316821F4802157
:102050003160606858B100F0D5F9054630688103F9
:10206000A1D400F0CFF9401B6528F7D3D1E700F0E9
:10207000C9F905463068810395D500F0C3F9401BC6
:102080006528F7D3C5E72069A8B10121396000F0C0
:10209000B9F905463068810705D400F0B3F9401B53
:1020A0000228F7D9B5E73068616920F0F80040EA06
:1020B000C100306096E7386000F0A4F90546316849
:1020C00088078FD500F09EF9401B0228F7D9A0E7BA
:1020D000DFF8F4020168C9084FF47A72B1FBF2F23A
:1020E000009200BF0098411E00280091F9D120788D
:1020F00041076ED5F0690025C10009D4F06940F0B0
:102100008050F0610125F06900F080500090009847
:10211000DFF8C882D8F80000C10520D4D8F8000044
:1021200040F48070C8F8000000F06CF98146D8F8DF
:102130000000C10513D400F065F9A0EB0900652883
:10214000F5D366E7086000F05DF90546706A81071F
:10215000CDD500F057F9401B0228F7D959E7E068C0
:10216000012808D008B9306A09E00528306A06D18C
:1021700040F004003062306A40F0010005E04008A1
:1021800040003062306A20F00400306241F2893849
:10219000E06860B100F036F98146306A810713D4F7
:1021A00000F030F9A0EB09004045F6D331E700F02C
:1021B00029F98146306A810706D500F023F9A0EBA2
:1021C00009004045F6D324E71DB1F06920F08050A6
:1021D000F061E06900284CD0716801F00C01082919
:1021E00038D002282AD100F047F80546306881012E
:1021F00005D500F007F9401B0228F7D909E7206A46
:10220000B0F5803F05D17168A06821F40031014329
:1022100071607268206A616A22F4741202430A4390
:102220007260012000F029F804463068810120D452
:1022300000F0E8F8001B0228F7D9EAE600F01CF8E5
:1022400004463068810114D500F0DCF8001B022838
:10225000F7D9DEE601280AD07068226A00F48031DE
:10226000914202BF00F47010616A884201D00120DF
:1022700000E00020BDE8F2830020386600F0C2B81C
:102280002DE9F041040088464ED0554E00F077F815
:1022900002D200F06FF847D120684A4D810712D56D
:1022A000400703D5696841F4E0616960207801075F
:1022B00003D5686840F4605068606968A06821F0E0
:1022C000F001014369602178C80725D560680128BD
:1022D00002D129688A0303E00228296802D18A0111
:1022E00002D421E08A071FD56968890840EA810085
:1022F000686000F087F807466868616800F00C00C5
:10230000B0EB810F08D000F07DF8C01B41F289319D
:102310008842F1D303202BE0306800F007008045AD
:1023200004D200F027F801D0012021E020784107F5
:1023300005D56A68E06822F4E06202436A602178A9
:10234000080706D56968206921F4605141EAC00197
:10235000696000F019F86A6822491B4BC2F3031246
:10236000895CC84018601A48006800F051F80020E5
:10237000BDE8F0813168C90848EAC10131603068C0
:1023800000F0070040457047174910480A6802F0FE
:102390000C03082B00D0704710B500BF14A4C2F383
:1023A0008343D203E35C08D50968584314A3C1F3FF
:1023B00040415A5CB0FBF2F010BD18460B4948434F
:1023C00010BD000000100240A400002000127A009E
:1023D000A000002000004242800442420070004001
:1023E00000200240F42F00080410024000093D00C4
:1023F00002030405060708090A0B0C0D0E0F101046
:102400000102000001484068704700BF98000020AA
:1024100038B50D4D0D4B2A7804464FF47A71186883
:10242000B1FBF2F2B0FBF2F000F049F850B9102C19
:1024300008D2002221464FF0FF3000F023F8AC60B4
:10244000002032BD012032BD98000020A4000020F1
:102450000901020002D4244881547047234B02F042
:102460000F021A4402F8041C7047214B19684FF6FA
:10247000FF020002114000F4E06008431D490843D8
:102480001860704770B51A4B1C68C4F3022301240E
:10249000C3F10705052D2EBF0F2504FA05F56D1EA6
:1024A0001E1D072E34BF0023DB1E2940994004FA6D
:1024B00003F3BDE870405B1E1A401143C8E710B536
:1024C000401EB0F1807F01D3012010BD0A4C606036
:1024D0000F214FF0FF30FFF7BBFF0021A160072065
:1024E0002060002010BD000000E400E018ED00E0D6
:1024F0000CED00E00000FA0510E000E0F8B5A74A96
:10250000556A966A90686C1C711C40F2E737401C53
:10251000D36A9060B8420CD100205B1C9060D362FB
:102520003C2BA2BFD06291623C293FDB9062546297
:102530003CE09B480778F80704D4506910B90E4670
:102540000121516117F0200004BF9169002902D1D7
:102550000121761E916196627E0604D4D16911B97B
:1025600025460124D4613C0604D4116A11B9012125
:102570006D1E11625562F90744BF0024546108B111
:1025800000209061780644BF0021D161380644BF25
:1025900000211162D168946A8248A14203BF156983
:1025A0009D4200220122032100F06FF97E4801685C
:1025B000490849000160F1BD7C4801688A0626D5BA
:1025C00076494068087008780A280FD04B788A1C32
:1025D000D0544878401CC2B2012A487003D18A6A9C
:1025E000CB6ACA600B61C0B2052801DB00204870CD
:1025F0008B78C8780A2202FB0303A3F504738B626D
:1026000088794B7902FB0302A2F50472CA62704713
:102610002DE9F0438BB000F047F900F083F900F0AA
:1026200055F900F0ADF900F0C8F900F0EBF900F051
:1026300017FA00F055FA002203215A485C4D574C16
:1026400000F0C8F80022002100F0C1F800220121AA
:1026500000F0BDF80022022100F0B9F800220321A9
:1026600000F0B5F80022042100F0B1F800220521A5
:1026700000F0ADF80022062100F0A9F800220721A1
:1026800000F0A5F801220421284600F0FEF80820F9
:1026900004210A9008910123202080210222049322
:1026A000029000910692099507950595039501956D
:1026B0002B46102104F1300000F0D6FA04F1880511
:1026C00032A633A70FF2CC080FF2CC092DE000F0B0
:1026D0007AF8002206211DE000F075F8002203219F
:1026E00000F06DF800F066F80022052100F067F8B0
:1026F000394600F060F8E26A0A2AE8DA0022062188
:1027000000F05DF8494600F056F8E26A00F05BF828
:102710000022072100F053F800F04CF800220821B5
:1027200000F04DF8314600F046F800F0ACF9626A6E
:102730000A2A0CDA0022002100F041F8494600F094
:102740003AF8626A00F03FF80022012103E000F04D
:102750003AF80022002100F032F800F02BF80022B5
:10276000022100F02CF8394600F025F8A26A0A2A66
:10277000B2DA0022032100F022F8494600F01BF8EB
:10278000A26A00F020F800220421A9E7210000003D
:102790003A00000025640000300000000000002026
:1027A0002C01002000180140102C0140003801408D
:1027B00000140140294604F1300000F0EEBA04F1A3
:1027C000300000F0BDBA4146284600F0F5BA284670
:1027D00000F000B8F0B58E000123751CB71C03FA99
:1027E00005F503FA07F7ED43FF43F61C8C000839A3
:1027F000012A03FA06F603FA04F40FD1026816431D
:1028000000F022F825EA040400F018F82C4300F048
:1028100027F8026822EA03030360F0BD6AB9026880
:1028200022EA060600F010F82C4300F007F8AC434B
:1028300000F016F8426813434360F0BD0460D51CF5
:10284000446803FA05F5704706600A0406683740D5
:102850000760920B07683D40056089000568704776
:102860004460951C446803FA05F5AC434460521C6F
:10287000446803FA02F224EA020242608B40704785
:102880008068C84000F0010070470123012A03FA64
:1028900001F103D1026911430161704712B9426924
:1028A000114341617047000080B50748016841F05D
:1028B000100101600320FFF7D8FD0F20FFF7A8FDEE
:1028C00000F09AFA002002BD00200240144801687E
:1028D00041F004010160026842F0080202600168F0
:1028E00041F010010160026842F0200202600168BC
:1028F00041F040010160026842F400620260016838
:1029000041F001010160426842F001024260416809
:1029100041F002014160026842F480420260704767
:102920001810024000B58FB02822002105A800F041
:1029300085FA14220021684600F080FA4FF48031B5
:102940000022069107920D91012005900990022224
:102950004FF4E0110C920E9105A8FFF707FB02213E
:1029600001910F204FF480610090002203910292A8
:10297000049202216846FFF783FC0FB000BD0000FF
:102980001C48016821F01001016040F2E732C26288
:1029900047218162C268184942F00102C2600A7888
:1029A00042F010020A7015490B6843F000730B6087
:1029B000016841F00101016070471148016841F46C
:1029C000206101604721026842F4204202604FF01A
:1029D000804040F2E7328162C26246F26001C1612A
:1029E0008121026A42F44072026201600022C263E5
:1029F00002647047002C014019E400E000E100E0AF
:102A0000040C01401348016821F0F00101600268E4
:102A100022F470620260016841F0300101600268D6
:102A200042F08002026041F64C52016841F480613C
:102A3000016042F22C010848026041602021426896
:102A400022F4B0524260054A1160436843F40053D7
:102A500043607047040801400838014004E100E089
:102A600010B51C4C002203212046FFF7B3FE0022C4
:102A700001211948FFF7AEFE2046BDE810400122B3
:102A80000421FFF7A7BE70B5144C134D114E00235F
:102A90002370002201212846FFF7F7FE01220121C1
:102AA0002846FFF7F2FE0725002203213046FFF7F4
:102AB000ECFE04213046FFF7E3FE2178A8400843EE
:102AC0002070012203213046FFF7DFFE6D1EEBD59B
:102AD000207870BD000C0140001801402C0100203E
:102AE00010B50B4C002200212046FFF773FE002298
:102AF00005210848FFF76EFE002202212046FFF75D
:102B000069FE2046BDE8104000220221FFF7BDBE4D
:102B100000180140000C014000F09AB970B504465D
:102B200010000CBF0022012A0D4603D121896068E4
:102B300000F0A2F9218B606900F081F86A08218C0D
:102B4000E06900F08DF8AA08218D606A00F088F82D
:102B5000EA08218EE06A00F083F82A09218F606B71
:102B600000F07EF86A0900F078F804F14806AA0936
:102B70003188606C00F074F831897068EA0900F0FF
:102B80007BF900F065F800F058F800F05CF800F010
:102B900054F800F05DF8BDE870404CE0F8B50D4623
:102BA00004462E0910000CBF0022012A03D12189FE
:102BB000606800F061F9218F606B06F0010200F09F
:102BC0005BF9720800F049F804F14807B208398847
:102BD000606C00F045F8F2083989786818BF012266
:102BE00000F04AF900F034F800F027F800F02BF874
:102BF00000F023F800F02CF800F01FF8218F606B34
:102C000000F01DF86A0800F028F8AA083988606CFE
:102C100000F026F8ED083989786800F010F800F027
:102C200017F800F00AF800F00EF800F006F800F0CF
:102C30000FF8BDE8F24001206EE701206CE705F0D7
:102C4000010200F019B9218AE068012200F014B9EC
:102C5000218AE068002200F00FB9B4F84010E06B60
:102C600002F0010200F008B92DE9F74F07460C9A6F
:102C7000DDF834E00E9CDDF83C80109DDDF84490DA
:102C8000DDF848B0DDF84CA01498DDF854C0169972
:102C900000263E709DF804607E709DF80860BE704E
:102CA0003C827B6007F148043A81C7F80CE0C7F822
:102CB00034803D87C7F83C90A7F840B0C7F844A0DF
:102CC00020802181282060730621A1720C20E072EF
:102CD0001421C4F804C021733220FFF71DFF002225
:102CE000332100F029F80520FFF716FF00223321D9
:102CF00000F022F80520FFF70FFF0022322100F03C
:102D00001BF80520FFF708FFA17A00F014F8E17A1C
:102D100000F011F8217B00F00EF8617B00F00BF859
:102D20000022012100F008F8384603B0BDE8F04F5A
:102D30000022022132E7002238462FE7000000007F
:102D400038B500BF1BA4256800954378994228BF79
:102D5000591E83789A4228BF5A1ED2B2C9B21DF8B2
:102D6000022089180278102A41F0800104D1002243
:102D7000C9B2FFF7D3FE31BD12B9C9B2FFF70EFFDA
:102D800031BD0278102A04BF0122FFF7C7BE002A16
:102D900004BF0122FFF702BF704738B504460D4655
:102DA00004E015F8011B2046FFF7EBFF2878002808
:102DB000F7D131BD004014540CB430B583B00A468D
:102DC00006A90291044600250194009502AB01A9D1
:102DD000084878441E30FDF7ABF9019A15700028B9
:102DE0004EBF04460198041B204603B030BC5DF87A
:102DF0000CFB00BFB3E4FFFF0E4881B0016841F057
:102E000001010160026802F001020092009942682B
:102E100042F080524260406800F08050009000987C
:102E20000548016821F0E06141F00071016001B0E6
:102E3000704700BF181002400400014010B504465E
:102E400010460A460146204600F01AF8204610BDFA
:102E500038B50446FFF7D6FA14F1010F054602D043
:102E6000044908780419FFF7CDFA401BA042FAD3B1
:102E700031BD00BF9800002002B90904016170470C
:102E800062F30F2262F31F42401810F0030308D0D0
:102E9000C91A1FD3DB0748BF00F8012D28BF20F84F
:102EA000022D130030B414461546103928BF20E90E
:102EB0003C00FAD8490728BF20E90C0048BF40F879
:102EC000042D890028BF20F8022D48BF00F8012DED
:102ED00030BC7047C91818BF00F8012DCB0728BFB8
:102EE00000F8012D7047F0B4024610689568131879
:102EF000506803EB5004C0071CD54D441AE013F88A
:102F0000017B05F8017B491EF9D198B113F8011B2B
:102F1000C6F38106032E08BF13F8016B01EB0621EF
:102F20004942801C294405D011F8016B05F8016B5A
:102F3000401EF9D1A3420ED013F8016B16F0030125
:102F400004BF13F8011BC91C30090F28DBD113F88B
:102F5000010B0F30D7E7F0BC02F10C007047000006
:102F600010B5074979441831064C7C44163404E006
:102F70000A68081D114488470146A142F8D110BDD6
:102F800008000000140000005FFFFFFF7C0100004C
:102F9000880000000000002000F00DF8002801D09B
:102FA000FFF7DEFFAFF300800020AFF30080FFF7F4
:102FB0002FFB00F002F80120704700F001B800007C
:102FC00007463846FEF7C8FFFBE7FEE7FEE7FEE7E9
:102FD000FEE7FEE770477047704700F001B8000059
:102FE00002494A68087882184A60704798000020B1
:102FF0007047000000000000000000000102030410
:10300000060708090148804701480047F12F0008DA
:1030100015300008AFF30080AFF30080FFF7BCFF6E
:10302000FFF7FEBFFFF7FEBFFFF7FEBFFFF7FEBFD4
:10303000FFF7FEBFFFF7FEBFFFF7FEBFFFF7FEBFC4
:10304000FFF7FEBFFFF7FEBFFFF7FEBFFFF7FEBFB4
:10305000FFF7FEBFFFF7FEBFFFF7FEBFFFF7FEBFA4
:10306000FFF7FEBFFFF7FEBFFFF7FEBFFFF7FEBF94
:10307000FFF7FEBFFFF7FEBFFFF7FEBFFFF7FEBF84
:10308000FFF7FEBFFFF7FEBFFFF7FEBFFFF7FEBF74
:10309000FFF7FEBFFFF7FEBFFFF7FEBFFFF7FEBF64
:1030A000FFF7FEBFFFF7FEBFFFF7FEBFFFF7FEBF54
:1030B000FFF7FEBFFFF7FEBFFFF7FEBFFFF7FEBF44
:1030C000FFF7FEBFFFF7FEBFFFF7FEBFFFF7FEBF34
:1030D000FFF7FEBFFFF7FEBFFFF7FEBFFFF7FEBF24
:1030E000FFF7FEBFFFF7FEBFFFF7FEBFFFF7FEBF14
:1030F000FFF7FEBFFFF7FEBFFFF7FEBFFFF7FEBF04
:10310000FFF7FEBFFFF7FEBFF2120001120E2512FD
:103110003A04F3593B000152016C221008F00507F4
:1031200024F400C61400080452FF01E3261314100F
:10313000010000260C214CF00217A8000020BF203F
:0C31400002091200082C43F7113C710139
:0400000508003015AA
:00000001FF
