:020000040800F2
:1000000038040020F10C0008B90C0008BB0C0008F3
:10001000BD0C0008BF0C0008C10C00080000000067
:10002000000000000000000000000000C30C0008F9
:10003000C50C000800000000C70C0008C90C00082F
:100040000D0D0008110D0008150D0008190D000810
:100050001D0D0008210D0008250D0008290D0008C0
:100060002D0D0008310D0008350D0008390D000870
:100070003D0D0008410D0008450D0008490D000820
:100080004D0D0008510D0008550D0008590D0008D0
:100090005D0D0008610D0008650D0008690D000880
:1000A0006D0D0008050A0008710D0008750D0008A7
:1000B000790D00087D0D0008810D0008850D0008F0
:1000C000890D00088D0D0008910D0008950D0008A0
:1000D000990D00089D0D0008A10D0008A50D000850
:1000E000A90D0008AD0D0008B10D0008B50D000800
:1000F000B90D0008BD0D0008C10D0008C50D0008B0
:10010000C90D0008CD0D0008D10D0008D50D00085F
:10011000D90D0008DD0D0008E10D0008E50D00080F
:10012000E90D0008ED0D0008F10D0008F50D0008BF
:100130002DE9F843040016D02078DFF84C64C1079D
:1001400013D5706800F00C00042807D0706800F028
:100150000C00082841D17068C1033ED53068810386
:1001600003D56068002800F064812078DFF82874E7
:10017000810719D5706810F00C0F07D0706800F077
:100180000C00082861D17068C1035ED43068810713
:1001900003D52069012840F04C813168606921F065
:1001A000F80141EAC00131602178080740F18180FF
:1001B000A069DFF8E813002800F0A68001220A6099
:1001C00000F002FA0546706A810763D400F0FCF97A
:1001D000401B0228F7D903202EE16068B0F5803F6C
:1001E00004D1306840F48030306014E008B93068E1
:1001F0000AE0B0F5A02F306806D140F480203060CE
:10020000316841F4803105E020F48030306031689D
:1002100021F480213160606858B100F0D5F90546BD
:1002200030688103A1D400F0CFF9401B6528F7D3D3
:10023000D1E700F0C9F905463068810395D500F093
:10024000C3F9401B6528F7D3C5E72069A8B1012190
:10025000396000F0B9F905463068810705D400F02F
:10026000B3F9401B0228F7D9B5E73068616920F07F
:10027000F80040EAC100306096E7386000F0A4F969
:100280000546316888078FD500F09EF9401B02288B
:10029000F7D9A0E7DFF8F4020168C9084FF47A72D1
:1002A000B1FBF2F2009200BF0098411E00280091BD
:1002B000F9D1207841076ED5F0690025C10009D435
:1002C000F06940F08050F0610125F06900F0805045
:1002D00000900098DFF8C882D8F80000C10520D44B
:1002E000D8F8000040F48070C8F8000000F06CF905
:1002F0008146D8F80000C10513D400F065F9A0EBE1
:1003000009006528F5D366E7086000F05DF9054649
:10031000706A8107CDD500F057F9401B0228F7D944
:1003200059E7E068012808D008B9306A09E00528D3
:10033000306A06D140F004003062306A40F00100BB
:1003400005E0400840003062306A20F0040030626E
:1003500041F28938E06860B100F036F98146306AD0
:10036000810713D400F030F9A0EB09004045F6D323
:1003700031E700F029F98146306A810706D500F09F
:1003800023F9A0EB09004045F6D324E71DB1F0693D
:1003900020F08050F061E06900284CD0716801F0D5
:1003A0000C01082938D002282AD100F047F8054668
:1003B0003068810105D500F007F9401B0228F7D904
:1003C00009E7206AB0F5803F05D17168A06821F483
:1003D0000031014371607268206A616A22F474120C
:1003E00002430A437260012000F029F80446306895
:1003F000810120D400F0E8F8001B0228F7D9EAE6D2
:1004000000F01CF804463068810114D500F0DCF8D7
:10041000001B0228F7D9DEE601280AD07068226A9C
:1004200000F48031914202BF00F47010616A88428A
:1004300001D0012000E00020BDE8F28300203866F2
:1004400000F0C2B82DE9F041040088464ED0554E68
:1004500000F077F802D200F06FF847D120684A4DDB
:10046000810712D5400703D5696841F4E0616960EE
:100470002078010703D5686840F4605068606968B7
:10048000A06821F0F001014369602178C80725D5F3
:100490006068012802D129688A0303E002282968DC
:1004A00002D18A0102D421E08A071FD56968890830
:1004B00040EA8100686000F087F807466868616874
:1004C00000F00C00B0EB810F08D000F07DF8C01BED
:1004D00041F289318842F1D303202BE0306800F0EB
:1004E0000700804504D200F027F801D0012021E068
:1004F0002078410705D56A68E06822F4E06202438B
:100500006A602178080706D56968206921F460517E
:1005100041EAC001696000F019F86A6822491B4B82
:10052000C2F30312895CC84018601A48006800F0E2
:1005300051F80020BDE8F0813168C90848EAC101DE
:100540003160306800F00700404570471749104897
:100550000A6802F00C03082B00D0704710B500BFEA
:1005600014A4C2F38343D203E35C08D5096858435B
:1005700014A3C1F340415A5CB0FBF2F010BD184621
:100580000B49484310BD000000100240200000202D
:1005900000127A001C000020000042428004424207
:1005A0000070004000200240E00C000804100240EF
:1005B00000093D0002030405060708090A0B0C0D9B
:1005C0000E0F10100102000001484068704700BF84
:1005D0001400002038B50D4D0D4B2A7804464FF419
:1005E0007A711868B1FBF2F2B0FBF2F000F049F852
:1005F00050B9102C08D2002221464FF0FF3000F0F5
:1006000023F8AC60002032BD012032BD1400002070
:10061000200000200901020002D4244881547047C0
:10062000234B02F00F021A4402F8041C7047214BBE
:1006300019684FF6FF020002114000F4E060084321
:100640001D4908431860704770B51A4B1C68C4F305
:1006500002230124C3F10705052D2EBF0F2504FA3F
:1006600005F56D1E1E1D072E34BF0023DB1E29401D
:10067000994004FA03F3BDE870405B1E1A40114331
:10068000C8E710B5401EB0F1807F01D3012010BD36
:100690000A4C60600F214FF0FF30FFF7BBFF0021D5
:1006A000A16007202060002010BD000000E400E0F1
:1006B00018ED00E00CED00E00000FA0510E000E0AD
:1006C00010B52D4C00220021204600F08AF80022AF
:1006D00005212A4800F085F800220221204600F07A
:1006E00080F82046BDE810400022022100F0D4B876
:1006F0002DE9F041224EDFF88480375C0D4600245E
:10070000C4F1070027FA00F1CB0754BF00220122F1
:100710000521404600F0C0F800F039F8012200F051
:1007200037F8641CE0B20828EADB134F00F02AF81F
:10073000002200F028F870190026057AC6F107009B
:1007400025FA00F1CA0754BF0022012205214046C4
:1007500000F0A2F800F01BF8012200F019F8761C56
:10076000F0B20828EADB00F00DF83846BDE8F041A9
:100770000022002100F090B800180140000C014058
:100780000000002001220021384600F085B8002238
:100790000321404600F080B8F8B50546642295FB79
:1007A000F2F602FB16550A2395FBF3F703FB1755E8
:1007B000032431460220FFF79BFF012000F07AF866
:1007C00039460320FFF794FF012000F073F8294613
:1007D0000420FFF78DFF012000F06CF8641EE8D1C3
:1007E000F1BDF0B58E000123751CB71C03FA05F5A9
:1007F00003FA07F7ED43FF43F61C8C000839012A82
:1008000003FA06F603FA04F40FD10268164300F067
:1008100022F825EA040400F018F82C4300F027F829
:10082000026822EA03030360F0BD6AB9026822EAA3
:10083000060600F010F82C4300F007F8AC4300F077
:1008400016F8426813434360F0BD0460D51C446849
:1008500003FA05F5704706600A040668374007602A
:10086000920B07683D400560890005687047446049
:10087000951C446803FA05F5AC434460521C446877
:1008800003FA02F224EA020242608B407047806859
:10089000C84000F0010070470123012A03FA01F16A
:1008A00003D1026911430161704712B942691143D2
:1008B0004161704738B50446FFF786FE14F1010F19
:1008C000054602D0044908780419FFF77DFE401B55
:1008D000A042FAD331BD00BF1400002012480168C5
:1008E00041F004010160026842F008020260016800
:1008F00041F010010160026842F0200202600168CC
:1009000041F040010160026842F400620260016847
:1009100041F001010160426842F001024260416819
:1009200041F00201416070471810024000B58FB0DD
:100930002822002105A800F026F81422002168468C
:1009400000F021F84FF480310022069107920D91BA
:1009500001200590099002224FF4E0110C920E91B3
:1009600005A8FFF7E5FB022101910F204FF48061FC
:100970000090002203910292049202216846FFF740
:1009800061FD0FB000BD10B5044610460A46014691
:10099000204600F003F8204610BD000062F30F224D
:1009A00062F31F42401810F0030308D0C91A1FD386
:1009B000DB0748BF00F8012D28BF20F8022D1300E7
:1009C00030B414461546103928BF20E93C00FAD847
:1009D000490728BF20E90C0048BF40F8042D8900D2
:1009E00028BF20F8022D48BF00F8012D30BC704709
:1009F000C91818BF00F8012DCB0728BF00F8012D3A
:100A0000704700001F480168491C152928BF0021B4
:100A100001601D480168490849000160704710B530
:100A200000F038F8FFF782FFFFF758FF00F044F8B6
:100A300000F05FF800F082F8FFF742FE134C00F080
:100A400090F813480178CA0706D4606820B9226874
:100A5000521C0120226060608A0606D4A06820B97A
:100A60002268521E01202260A060C80744BF0022F5
:100A70006260880644BF0021A1602068FFF78CFEF9
:100A8000DDE7000024000020102C01402800002099
:100A90003400002080B50748016841F01001016072
:100AA0000320FFF7C4FD0F20FFF794FD00F086F848
:100AB000002002BD002002401C48016821F0100106
:100AC000016040F2E732C26247218162C268184980
:100AD00042F00102C2600A7842F010020A70154921
:100AE0000B6843F000730B60016841F00101016085
:100AF00070471148016841F4206101604721026894
:100B000042F4204202604FF0804040F2E7328162BE
:100B1000C26246F26001C1618121026A42F4407200
:100B2000026201603222C26302647047002C0140FD
:100B300019E400E000E100E0040C014010B51C4C99
:100B4000002203212046FFF74CFE00220121194814
:100B5000FFF747FE2046BDE8104001220421FFF7C1
:100B600040BE70B5144C134D114E0023237000226B
:100B700001212846FFF790FE012201212846FFF7B8
:100B80008BFE0725002203213046FFF785FE042156
:100B90003046FFF77CFE2178A840084320700122F0
:100BA00003213046FFF778FE6D1EEBD5207870BD2F
:100BB000000C014000180140340000200E4881B0B4
:100BC000016841F001010160026802F00102009237
:100BD0000099426842F080524260406800F08050C4
:100BE000009000980548016821F0E06141F0007133
:100BF000016001B0704700BF1810024004000140BE
:100C000030B5016884684218416802EB5103C90796
:100C100003D54C4401E0491C05D19A420AD012F98F
:100C2000011B12F8015B002904F8015BF3D4491E93
:100C3000F7D5F2E70C3030BD10B5074979441831CB
:100C4000064C7C44163404E00A68081D11448847A9
:100C50000146A142F8D110BD0800000014000000B8
:100C6000A1FFFFFF940100004200000000000020EF
:100C700000F00DF8002801D0FFF7DEFFAFF3008091
:100C80000020AFF30080FFF7CAFE00F002F8012059
:100C9000704700F001B800000746384600F002F83F
:100CA000FBE7000080B5AFF30080024A1100182076
:100CB000ABBEFBE726000200FEE7FEE7FEE7FEE72D
:100CC000FEE770477047704700F000B802494A6875
:100CD000087882184A6070471400002070470000AE
:100CE00000000000000000000102030406070809DC
:100CF0000148804701480047DD0C0008010D00084D
:100D0000AFF30080AFF30080FFF7B2FFFFF7FEBF45
:100D1000FFF7FEBFFFF7FEBFFFF7FEBFFFF7FEBF07
:100D2000FFF7FEBFFFF7FEBFFFF7FEBFFFF7FEBFF7
:100D3000FFF7FEBFFFF7FEBFFFF7FEBFFFF7FEBFE7
:100D4000FFF7FEBFFFF7FEBFFFF7FEBFFFF7FEBFD7
:100D5000FFF7FEBFFFF7FEBFFFF7FEBFFFF7FEBFC7
:100D6000FFF7FEBFFFF7FEBFFFF7FEBFFFF7FEBFB7
:100D7000FFF7FEBFFFF7FEBFFFF7FEBFFFF7FEBFA7
:100D8000FFF7FEBFFFF7FEBFFFF7FEBFFFF7FEBF97
:100D9000FFF7FEBFFFF7FEBFFFF7FEBFFFF7FEBF87
:100DA000FFF7FEBFFFF7FEBFFFF7FEBFFFF7FEBF77
:100DB000FFF7FEBFFFF7FEBFFFF7FEBFFFF7FEBF67
:100DC000FFF7FEBFFFF7FEBFFFF7FEBFFFF7FEBF57
:100DD000FFF7FEBFFFF7FEBFFFF7FEBFFFF7FEBF47
:100DE000FFF7FEBFFFF7FEBFFFF7FEBFFFF7FEBF37
:100DF000FFF7FEBFFFF7FEBF040810204080FD0094
:100E00000CAFA06EEAE1CBCFA2EFEB000001F9003E
:090E10000010FC000124F4EE00C6
:0400000508000D01E1
:00000001FF
