:020000040800F2
:1000000018040020E50A0008990A00089B0A000865
:100010009D0A00089F0A0008A10A000800000000CD
:10002000000000000000000000000000A30A00081B
:10003000A50A000800000000A70A0008A90A000895
:10004000010B0008050B0008090B00080D0B000848
:10005000110B0008150B0008190B00081D0B0008F8
:10006000210B0008250B0008290B00082D0B0008A8
:10007000310B0008350B0008390B00083D0B000858
:10008000410B0008450B0008490B00084D0B000808
:10009000510B0008550B0008590B00085D0B0008B8
:1000A000610B0008D5080008650B0008690B000803
:1000B0006D0B0008710B0008750B0008790B000828
:1000C0007D0B0008810B0008850B0008890B0008D8
:1000D0008D0B0008910B0008950B0008990B000888
:1000E0009D0B0008A10B0008A50B0008A90B000838
:1000F000AD0B0008B10B0008B50B0008B90B0008E8
:10010000BD0B0008C10B0008C50B0008C90B000897
:10011000CD0B0008D10B0008D50B0008D90B000847
:10012000DD0B0008E10B0008E50B0008E90B0008F7
:100130002DE9F843040016D02078DFF84C64C1079D
:1001400013D5706800F00C00042807D0706800F028
:100150000C00082841D17068C1033ED53068810386
:1001600003D56068002800F064812078DFF82874E7
:10017000810719D5706810F00C0F07D0706800F077
:100180000C00082861D17068C1035ED43068810713
:1001900003D52069012840F04C813168606921F065
:1001A000F80141EAC00131602178080740F18180FF
:1001B000A069DFF8E813002800F0A68001220A6099
:1001C00000F018FA0546706A810763D400F012FA4D
:1001D000401B0228F7D903202EE16068B0F5803F6C
:1001E00004D1306840F48030306014E008B93068E1
:1001F0000AE0B0F5A02F306806D140F480203060CE
:10020000316841F4803105E020F48030306031689D
:1002100021F480213160606858B100F0EBF90546A7
:1002200030688103A1D400F0E5F9401B6528F7D3BD
:10023000D1E700F0DFF905463068810395D500F07D
:10024000D9F9401B6528F7D3C5E72069A8B101217A
:10025000396000F0CFF905463068810705D400F019
:10026000C9F9401B0228F7D9B5E73068616920F069
:10027000F80040EAC100306096E7386000F0BAF953
:100280000546316888078FD500F0B4F9401B022875
:10029000F7D9A0E7DFF8F4020168C9084FF47A72D1
:1002A000B1FBF2F2009200BF0098411E00280091BD
:1002B000F9D1207841076ED5F0690025C10009D435
:1002C000F06940F08050F0610125F06900F0805045
:1002D00000900098DFF8C882D8F80000C10520D44B
:1002E000D8F8000040F48070C8F8000000F082F9EF
:1002F0008146D8F80000C10513D400F07BF9A0EBCB
:1003000009006528F5D366E7086000F073F9054633
:10031000706A8107CDD500F06DF9401B0228F7D92E
:1003200059E7E068012808D008B9306A09E00528D3
:10033000306A06D140F004003062306A40F00100BB
:1003400005E0400840003062306A20F0040030626E
:1003500041F28938E06860B100F04CF98146306ABA
:10036000810713D400F046F9A0EB09004045F6D30D
:1003700031E700F03FF98146306A810706D500F089
:1003800039F9A0EB09004045F6D324E71DB1F06927
:1003900020F08050F061E06900284CD0716801F0D5
:1003A0000C01082938D002282AD100F047F8054668
:1003B0003068810105D500F01DF9401B0228F7D9EE
:1003C00009E7206AB0F5803F05D17168A06821F483
:1003D0000031014371607268206A616A22F474120C
:1003E00002430A437260012000F029F80446306895
:1003F000810120D400F0FEF8001B0228F7D9EAE6BC
:1004000000F01CF804463068810114D500F0F2F8C1
:10041000001B0228F7D9DEE601280AD07068226A9C
:1004200000F48031914202BF00F47010616A88428A
:1004300001D0012000E00020BDE8F28300203866F2
:1004400000F0D8B82DE9F041040088464ED0554E52
:1004500000F077F802D200F06FF847D120684A4DDB
:10046000810712D5400703D5696841F4E0616960EE
:100470002078010703D5686840F4605068606968B7
:10048000A06821F0F001014369602178C80725D5F3
:100490006068012802D129688A0303E002282968DC
:1004A00002D18A0102D421E08A071FD56968890830
:1004B00040EA8100686000F09DF80746686861685E
:1004C00000F00C00B0EB810F08D000F093F8C01BD7
:1004D00041F289318842F1D303202BE0306800F0EB
:1004E0000700804504D200F027F801D0012021E068
:1004F0002078410705D56A68E06822F4E06202438B
:100500006A602178080706D56968206921F460517E
:1005100041EAC001696000F019F86A6822491B4B82
:10052000C2F30312895CC84018601A48006800F0E2
:1005300067F80020BDE8F0813168C90848EAC101C8
:100540003160306800F00700404570471749104897
:100550000A6802F00C03082B00D0704710B500BFEA
:1005600014A4C2F38343D203E35C08D5096858435B
:1005700014A3C1F340415A5CB0FBF2F010BD184621
:100580000B49484310BD0000001002400C00002041
:1005900000127A000800002000004242800442421B
:1005A0000070004000200240C00A00080410024011
:1005B00000093D0002030405060708090A0B0C0D9B
:1005C0000E0F1010010230B40EE0026843680244BE
:1005D0000830DC0744BFA9F10104E31852F8045BBA
:1005E00043F8045B091FF9D150F8041B0029ECD132
:1005F00030BC704701484068704700BF00000020D1
:1006000038B50D4D0D4B2A7804464FF47A711868B1
:10061000B1FBF2F2B0FBF2F000F049F850B9102C47
:1006200008D2002221464FF0FF3000F023F8AC60E2
:10063000002032BD012032BD000000200C0000204F
:100640000901020002D4244881547047234B02F070
:100650000F021A4402F8041C7047214B19684FF628
:10066000FF020002114000F4E06008431D49084306
:100670001860704770B51A4B1C68C4F3022301243C
:10068000C3F10705052D2EBF0F2504FA05F56D1ED4
:100690001E1D072E34BF0023DB1E2940994004FA9B
:1006A00003F3BDE870405B1E1A401143C8E710B564
:1006B000401EB0F1807F01D3012010BD0A4C606064
:1006C0000F214FF0FF30FFF7BBFF0021A160072093
:1006D0002060002010BD000000E400E018ED00E004
:1006E0000CED00E00000FA0510E000E0F0B58E002F
:1006F0000123751CB71C03FA05F503FA07F7ED4350
:10070000FF43F61C8C000839012A03FA06F603FAA7
:1007100004F40FD10268164300F022F825EA04041D
:1007200000F018F82C4300F027F8026822EA0303CF
:100730000360F0BD6AB9026822EA060600F010F80C
:100740002C4300F007F8AC4300F016F8426813435E
:100750004360F0BD0460D51C446803FA05F570479A
:1007600006600A04066837400760920B07683D4040
:1007700005608900056870474460951C446803FA69
:1007800005F5AC434460521C446803FA02F224EAC3
:10079000020242608B4070470123012A03FA01F1F3
:1007A00003D1026911430161704712B942691143D3
:1007B000416170471048016841F00401016002681E
:1007C00042F008020260016841F010010160026815
:1007D00042F020020260016841F0400101600268BD
:1007E00042F400620260416841F0010141604168E9
:1007F00041F00201416070471810024000B58FB00F
:100800002822002105A800F026F8142200216846BD
:1008100000F021F84FF480310022069107920D91EB
:1008200001200590099002224FF4E0110C920E91E4
:1008300005A8FFF77DFC022101910F204FF4806194
:100840000090002203910292049202216846FFF771
:10085000F9FD0FB000BD10B5044610460A4601462A
:10086000204600F003F8204610BD000062F30F227E
:1008700062F31F42401810F0030308D0C91A1FD3B7
:10088000DB0748BF00F8012D28BF20F8022D130018
:1008900030B414461546103928BF20E93C00FAD878
:1008A000490728BF20E90C0048BF40F8042D890003
:1008B00028BF20F8022D48BF00F8012D30BC70473A
:1008C000C91818BF00F8012DCB0728BF00F8012D6B
:1008D0007047000080B5134913480A68521C0A602B
:1008E00040F2F5139A4226BF00220A600122092134
:1008F000FFF752FF0D48016849084900016001BD3A
:1009000080B500F015F8FFF779FFFFF753FF00F00F
:1009100021F800F045F8002209210348FFF7E6FE20
:10092000FEE700001000002000080140102C0140EC
:1009300080B50748016841F0100101600320FFF70E
:100940008CFE0F20FFF75CFE00F042F8002002BD95
:10095000002002401148016841F420610160826872
:1009600042F48062826040F2E732816841F40061C3
:1009700081604FF0804047218162C26246F260018F
:10098000C1618121026A42F44072026201604FF447
:100990006171C1630164704700000000040C0140F4
:1009A00010B5094C002203212046FFF79FFE0022CC
:1009B00001210648FFF79AFE2046BDE810400122BB
:1009C0000421FFF793BE0000000C01400018014015
:1009D0000E4881B0016841F001010160026802F037
:1009E000010200920099426842F0805242604068E1
:1009F00000F08050009000980548016821F0E06107
:100A000041F00071016001B0704700BF1810024052
:100A10000400014010B5074979441831064C7C4464
:100A2000163404E00A68081D114488470146A142B3
:100A3000F8D110BD08000000180000008BFBFFFF7C
:100A4000140000008C0000000000002000000000E6
:100A500000F00DF8002801D0FFF7DCFFAFF30080B5
:100A60000020AFF30080FFF74BFF00F002F80120F9
:100A7000704700F001B800000746384600F002F861
:100A8000FBE7000080B5AFF30080024A1100182098
:100A9000ABBEFBE726000200FEE7FEE7FEE7FEE74F
:100AA000FEE770477047704700F000B802494A6897
:100AB000087882184A6070470000002070470000E4
:100AC00000000000000000000102030406070809FE
:100AD0000100000000000000100000000024F400ED
:100AE000000000000148804701480047BD0A000897
:100AF000F50A0008AFF30080AFF30080FFF7A8FF0E
:100B0000FFF7FEBFFFF7FEBFFFF7FEBFFFF7FEBF19
:100B1000FFF7FEBFFFF7FEBFFFF7FEBFFFF7FEBF09
:100B2000FFF7FEBFFFF7FEBFFFF7FEBFFFF7FEBFF9
:100B3000FFF7FEBFFFF7FEBFFFF7FEBFFFF7FEBFE9
:100B4000FFF7FEBFFFF7FEBFFFF7FEBFFFF7FEBFD9
:100B5000FFF7FEBFFFF7FEBFFFF7FEBFFFF7FEBFC9
:100B6000FFF7FEBFFFF7FEBFFFF7FEBFFFF7FEBFB9
:100B7000FFF7FEBFFFF7FEBFFFF7FEBFFFF7FEBFA9
:100B8000FFF7FEBFFFF7FEBFFFF7FEBFFFF7FEBF99
:100B9000FFF7FEBFFFF7FEBFFFF7FEBFFFF7FEBF89
:100BA000FFF7FEBFFFF7FEBFFFF7FEBFFFF7FEBF79
:100BB000FFF7FEBFFFF7FEBFFFF7FEBFFFF7FEBF69
:100BC000FFF7FEBFFFF7FEBFFFF7FEBFFFF7FEBF59
:100BD000FFF7FEBFFFF7FEBFFFF7FEBFFFF7FEBF49
:0C0BE000FFF7FEBFFFF7FEBFFFF7FEBFF0
:0400000508000AF5F0
:00000001FF
